:100000000C9490020C94D7020C94D7020C948D237C
:100010000C94D7020C94D7020C94D7020C94D702FC
:100020000C94D7020C94D7020C944A1A0C9486199B
:100030000C948C1D0C94D7020C94D7020C94D7020C
:100040000C94D7020C94D7020C94D7020C94D702CC
:100050000C94D7020C943F1D0C94D7020C94D70239
:100060000C94D7020C94D7020C94D7020C94D702AC
:100070000C94D7020C94D7020C94D7020C94D7029C
:100080000C94D7020C94D7020C94D7020C94D7028C
:100090000C94D7020C94D7020C94D7020C94D7027C
:1000A0000C94D7020C94D7020C94D702F306F306F3
:1000B000250725079707B3074A094A09BE079C0881
:1000C000AD08AD089D17C4176819C4176819101832
:1000D0003318681929193819B321B321C621C6214B
:1000E000BC21C621C621C621B321B321C121C6210D
:1000F000C621C1210A000A0025356400444F574E2D
:100100002825642C2564293A25640A0055502825A1
:10011000642C2564293A25640A004552524F52281E
:1001200025642C2564293A25640A004572726F7291
:100130003A20646973636F6E6E6563742073706CCC
:1001400069742068616C660A0044454255473A204C
:1001500064697361626C65642E0A004445425547C8
:100160003A20656E61626C65642E0A004661696CB6
:10017000656420746F2065786563757465202573E8
:100180000A005B735D000A0025303862003A2000E7
:1001900025303258000A722F632030313233343523
:1001A00036370A000A0025303258006B6579626FD5
:1001B0006172645F7365745F6C65643A20002B0044
:1001C00014001A00080015001700E300E000040006
:1001D0001600070009000A000151E1001D001B0084
:1001E0000600190005002C002A00130012000C0064
:1001F00018001C00E600340033000F000E000D0054
:100200000B000251E50038003700360010001100E5
:10021000280029001E001F00200021002200E3000A
:10022000E000000000000000000000000151E100BB
:10023000000000000000000000002C002A00270041
:100240002600250024002300E600000000004F00E7
:100250005200510050000251000000000000000058
:1002600000000000280029001E021F0220022102B7
:100270002202E300E0000000000000000000000097
:100280000151E100000000000000000000002C000F
:100290002A0027022602250224022302E600350056
:1002A000310230022F022E002D00025135023100A2
:1002B00030002F002E022D022800005CAB5D0000F4
:1002C000000000000000E300C35CC65CC85CCA5CC0
:1002D000000000000151C45CC75CC95CCB5C00003D
:1002E00000002C00000000000000000000000000E2
:1002F000E6000000000000000000000000000251C5
:1003000000000000000000000000000028004F6E08
:100310006573686F743A206163746976653A202565
:10032000640A000A002530325820006B6579626F3C
:100330006172645F7265706F72743A20000631FFFB
:100340000974A1010975150026FF00952075088123
:10035000020976150026FF00952075089102C00558
:10036000010902A10185020901A10005091901295C
:10037000081500250195087501810205010930095C
:10038000311581257F95027508810609381581256B
:100390007F950175088106050C0A38021581257FB5
:1003A000950175088106C0C005010980A10185037A
:1003B00019012AB700150126B700950175108100B3
:1003C000C0050C0901A101850419012AA00215012B
:1003D00026A002950175108100C005010906A10142
:1003E000050719E029E71500250195087501810227
:1003F0009501750881010507190029FF150026FFE1
:1004000000950675088100050819012905950575EF
:10041000019102950175039101C05B435D005B444E
:100420005D005B535D005B575D005B525D00090240
:100430005B00030100A0FA090400000103010100B0
:100440000921110100012240000705810308000A6B
:10045000090401000103000000092111010001222B
:100460007B000705820320000A0904020002030042
:100470000000092111010001222200070583032049
:100480000001070503032000011201000200000023
:1004900008EDFE716B010001020001220343006FB1
:1004A0000072006E006500200045004300200052ED
:1004B00000650076006900760061006C00000010A5
:1004C0000343006900700075006C006F0074000049
:1004D0000004030904290A002575002F0025750072
:1004E0005D280025640020002564002000256400AC
:1004F00020002564007C0025303258006D6F757334
:10050000656B6579205B62746E7C7820792076203B
:10051000685D287265702F61636C293A205B00006A
:1005200011241FBECFEFDAE0DEBFCDBF04B603FE5D
:1005300027C08091C9029091CA02A091CB02B091CC
:10054000CC028730904BA740B04BD1F41092C90237
:100550001092CA021092CB021092CC0214BE84B741
:10056000877F84BF0FB6F894A8958091600088615A
:1005700080936000109260000FBEE0E0F8E3099500
:1005800011E0A0E0B1E0E6E2FBE402C005900D92CC
:10059000A439B107D9F722E0A4E9B1E001C01D9266
:1005A000A93CB207E1F70E94A20D0C9491250C948E
:1005B0000000FF93EF93E0919401F0919501309743
:1005C00009F00995EF91FF910895FC018591803024
:1005D00011F0EFDFFBCF0895FF27E0E230E247FFA5
:1005E0000CC0419597FF09C0EDE26095709580952C
:1005F0009095611D711D811D911D27FF02C02195E0
:1006000030E350E2AA27660F771F881F991FAA1FA1
:10061000A41710F0A41B63955A95A9F7AA3008F007
:10062000A95FA05DAF93F3956115710581059105F3
:1006300041F7ED3211F4EF93F395F21718F43F936D
:10064000F395FBCF8F91B5DFFA95E1F70895E99126
:10065000F9918591803021F0853219F0AADFF9CF28
:10066000089520E0E89455915532C1F3503311F4C8
:10067000689455915A3348F4505390F3220F022E48
:10068000220F220F200D250FF4CF0EF42195899112
:100690009991533619F3533729F1533559F1BC0168
:1006A00088279927E8945C3621F489919991689478
:1006B0005591543639F446EF7EF077FF0DC08FEF39
:1006C0009FEF0AC055374AE039F0583540E121F034
:1006D000523642E009F00895FF93EF937DDFEF91EA
:1006E000FF91B7CFFF93EF93FC0181918030B9F375
:1006F00060DFFBCFFF93EF9368DFF1CFDF93CF9302
:10070000CDB7DEB72596A3DFCF91DF910895A1E5A0
:10071000B1E041E050E081E0A435B80789F08D9167
:10072000E82FE295EF70F0E092A18F709A0101C07E
:10073000220F8A95EAF7822F8095892382A3EBCF37
:1007400008951F93CF93DF93CDB7DEB767970FB6AA
:10075000F894DEBF0FBECDBF4B8B5C8B6D8B7E8B59
:100760008F8B611110926A0286E09E01235F3F4FDA
:10077000D901E82F1D92EA95E9F795E0FE017396FD
:10078000D90101900D929A95E1F79C894E895F8974
:100790007B897D879E876F87598B488BF901DE01A6
:1007A000179601900D928A95E1F7CE0107960E9467
:1007B000D41481113EC086E0FE013796DE01119609
:1007C00001900D928A95E1F7FF81E8856A857B8526
:1007D0006115710531F0EF3F31F481E0FF3F19F40D
:1007E00003C081E001C080E080FD23C0209136027B
:1007F00030E0C9010196877099274091670250E067
:100800008417950779F1F983EA837D836C8396E0F9
:10081000929FD001939FB00D1124A95CBD4FFE01A2
:10082000319601900D929A95E1F7809336020E94DD
:10083000421416E080916702909136028917F9F010
:10084000189FC0011124895C9D4F0E94D4148823F5
:10085000B1F08091670290E00196877099278093AC
:100860006702E8CF0E94CA211092360210926702F6
:10087000E0E3F2E086E0DF011D928A95E9F76796F2
:100880000FB6F894DEBF0FBECDBFDF91CF911F91A1
:1008900008958F929F92AF92BF92CF92DF92EF9284
:1008A000FF920F931F93CF93DF93CDB7DEB72A97B5
:1008B0000FB6F894DEBF0FBECDBFFC010081D18022
:1008C00083819481892B39F01FEFD11206C091E00A
:1008D0000F3F19F403C091E001C090E090FD3AC5CC
:1008E0007F0185E0DE01169601900D928A95E1F771
:1008F000F70122818E819F81222349F00E9480206E
:10090000182F682F8E819F810E94052103C00E94AD
:10091000D920182F2AE2129FF001112437E0D39E2C
:10092000E00DF11D1124E00FF11DEE0FFF1FE25449
:10093000FE4F05911491043F8CE5180741F190F4A6
:10094000093DECE51E07E9F00A3DFCE51F0789F1CA
:10095000083D2CE51207B1F506E221EE41EE68ED07
:100960007CE52CC0063F3CE51307E9F0B0F0073FFB
:100970009CE5190739F507E225EE46EE67EF7CE5C1
:100980001DC007E225EE45EE69ED7CE517C006E2E5
:1009900021EE40EE64EF7CE511C007E225EE44EE67
:1009A00065EF7CE50BC006E221EE42EE66EF7CE5EA
:1009B00005C008E221E045EE6AED7CE5C7010E9432
:1009C000181EA5C4F7018281882309F445C110923D
:1009D0009B020430FDE51F0758F40B3F2CE512077E
:1009E00060F4C80182509C45449708F01FC105C0BF
:1009F00002363DE5130709F019C10E9403139093D5
:100A000014028093130200318CE5180709F4CAC060
:100A100008F041C00830ECE51E0709F4A4C0F0F46A
:100A200004302CE5120709F48CC068F402308CE520
:100A3000180709F482C003301C4509F0E7C0809113
:100A400013028260E1C00630ECE51E0709F483C0A2
:100A500008F085C0809113028860D6C00C302CE568
:100A6000120709F490C068F40A308CE5180709F4FD
:100A70007EC008F084C00E94CA2180911302806861
:100A8000C3C00E30ECE51E0709F481C008F086C033
:100A90008091130294C00D3F2CE5120709F47BC02E
:100AA00038F504318CE5180709F49AC058F402317E
:100AB000ECE51E0709F47AC008F07EC080911302AD
:100AC0008F7BA2C00B3F2CE51207F1F108F03FC06D
:100AD00005311C4509F09AC08091130282FB222740
:100AE00020F991E0922790FB82F990FB83F98CC06A
:100AF00001309DE5190709F467C050F48091140294
:100B00000F3FFCE51F07C1F108F05BC08D7F65C09A
:100B100003303DE5130709F471C008F46DC00236D7
:100B20001D4509F073C08091130284FB222720F930
:100B300091E0922790FB84F967C080911302816055
:100B400063C08091130216C08091140216C0809178
:100B50001402826042C080911302806155C080916E
:100B60001302806251C08091130280644DC0809155
:100B700013028860846048C0826081602EC08091CA
:100B800013028E7F41C0809113028D7F3DC0809102
:100B90001302877F39C08091140214C08091130220
:100BA0008F7E32C0809113028F7D2EC00E94CA2199
:100BB000809113028F7728C080911302877F8B7FEB
:100BC00023C08D7F8E7F09C080911402982F90954D
:100BD00091708E7F892B90FB81F98093140216C04F
:100BE0000E94CA218091130287FB222720F991E0FD
:100BF000922790FB87F908C061E001C060E08EE0B9
:100C000090E00E941A2502C08093130260911302A3
:100C10001091140284E090E00E941A25612F82E274
:100C200090E00E941A250E94CA2171C306312CE56A
:100C3000120719F580916B028A7A91E009F490E02D
:100C40009093F401882311F065E301C069E288E222
:100C500092E00E94C21D0EC006311C4509F067C01B
:100C60008091F401882309F473C365E388E292E07C
:100C70000E94B51D0E948C134AC30F3DECE51E0770
:100C800009F447C040F401152CE5120799F0013032
:100C90001C4561F14CC00C358DE5180709F444C0C2
:100CA0000D359DE51907C1F10B351D4509F03FC014
:100CB00081E03BC00E94CA21FFEF04E31CE0F15039
:100CC00000401040E1F700C0000087E797E79093ED
:100CD0000108809300089AE088E10FB6F894A8957F
:100CE000809360000FBE90936000FFCF80918E02D2
:100CF000982F9095917090FB80F980938E029923A4
:100D000019F08BE591E002C089E491E00E94E502D0
:100D1000FEC20E941413FBC28091140282FB88273A
:100D200080F991E0892701C080E00E941314F70147
:100D300082810081D180882359F0802F9D2D0E94CF
:100D40008020182F682F802F9D2D0E94052105C01F
:100D5000802F9D2D0E94D920182F2AE2129FF0018A
:100D6000112437E0D39EE00DF11D1124E00FF11D99
:100D7000EE0FFF1FE254FE4F859194910E9469117E
:100D80008C01982EF701D280A580A2943FE0A32287
:100D9000809168028770B9F0DD20A9F0812F807FF3
:100DA000803421F080E2800F883068F08091140256
:100DB00082FD09C082E00E94F6138091680287706C
:100DC000CC24C3948111C12CB12EB2949FE0B922DE
:100DD0008B2D90E08C30910508F05CC2FC01EA5A42
:100DE000FF4F0C946E25812F807F1F70882311F098
:100DF0001295107FDD20B9F0112309F438C280E28A
:100E0000800F883010F0911006C080916B02182B73
:100E100010936B0205C080916A02182B10936A022E
:100E20000E948C1324C2802F0E94E621112309F412
:100E300031C2005E083078F1992069F110958091F7
:100E40006A02182310936A0229C0812F807F1F70C5
:100E5000803211F01295107F992021F0F1E09F1659
:100E6000D9F149C08091140282FF1BC0DD2069F0D6
:100E7000112339F080916B02182B10936B020E94A2
:100E80008C1380E00E94462205C280E00E94E62189
:100E9000112309F4FFC1812F0E9485130E948C1336
:100EA000F9C1DD2081F080916C02AA2051F001E0AF
:100EB000A01207C0182B181709F4ECC110936C028C
:100EC000E9C1812B10C0AA2021F021E0A21609F46B
:100ED000E1C10E947F1327C0DD2041F035E03A15C3
:100EE00008F4D8C1812F0E94DC21D4C184E08A1586
:100EF00008F4D0C118C0DD2049F0AA2099F3F70109
:100F0000858180FFB4C18F708583ECCFAA2059F012
:100F1000093309F0BCC1FFEF17EE23E0F150104098
:100F20002040E1F7B2C1812F0E94D521B3C1812FAA
:100F300086958695837019F0813059F0ABC1DD201C
:100F400019F0C801937002C080E090E00E94F21D89
:100F5000A7C1DD2019F0C801937002C080E090E0C5
:100F60000E94DC1D9DC1802FDD2019F00E94082009
:100F700002C00E944F1F0E94A31E92C1812F837046
:100F800009F069C0D1108AC1902F929596959770FB
:100F9000990F990F802F8F70882E912CA12CB12C36
:100FA000092E04C0880C991CAA1CBB1C0A94D2F7F9
:100FB00004FF12C04FE050E060E070E004C0440F56
:100FC000551F661F771F9A95D2F7DB01CA018095DE
:100FD0009095A095B09503C080E090E0DC01169557
:100FE0001695412F4370423019F1C8F400916D02FB
:100FF00010916E0220916F0230917002413059F0D1
:1010000088299929AA29BB29BC01CD016023712314
:10101000822393230AC0802A912AA22AB32ABC01E0
:10102000CD01682979298A299B290E94942136C1FA
:1010300088299929AA29BB2900916D0210916E0275
:1010400020916F0230917002BC01CD0160277127A1
:1010500082279327EACFDD2019F0812F817001C00C
:101060008695882309F41AC1902F929596959770CA
:10107000990F990F802F8F70882E912CA12CB12C55
:10108000092E04C0880C991CAA1CBB1C0A94D2F718
:1010900004FF12C04FE050E060E070E004C0440F75
:1010A000551F661F771F9A95D2F7DB01CA018095FD
:1010B0009095A095B09503C080E090E0DC01169576
:1010C0001695412F43704230D9F068F500910F0218
:1010D000109110022091110230911202413059F00A
:1010E00088299929AA29BB29BC01CD016023712334
:1010F000822393231EC0802A912AA22AB32A13C0D6
:1011000088299929AA29BB2900910F021091100260
:101110002091110230911202BC01CD01602771278C
:101120008227932706C0BC01CD01682979298A2925
:101130009B290E943021B2C01F70DD2039F0812F21
:101140000E947321802F0E94DC21A8C0802F0E9462
:10115000D521812F0E944E21A1C0802F32EF9316FE
:1011600009F443C0391538F090EF991659F0E1EFC2
:101170009E16B1F177C0F3EF9F16F1F124EF9216AE
:1011800059F170C0DD2019F134E03A1508F482C03D
:101190001F7181E090E0A0E0B0E0AC01BD0104C0AF
:1011A000440F551F661F771F1A95D2F780910F02C3
:1011B00090911002A0911102B09112028A019B013C
:1011C000082719272A273B27C901B80129C025E08C
:1011D0002A1508F45FC0DCCF8091140282FF23C07F
:1011E000DD2029F0812F8F7130C0DD20D9F3812FD0
:1011F0008F710E944E214EC0DD2079F01F7181E079
:1012000090E0A0E0B0E0BC01CD0104C0660F771F04
:10121000881F991F1A95D2F703C060E070E0CB01D8
:101220000E94302137C0DD2099F01F71812F0E946C
:1012300073218091140282FD07C038E0139FC00122
:101240001124836080936802812F0E94732122C041
:1012500081E00E94F61381E08A15E0F482E00E94AA
:10126000F61318C0DD2029F0AA2009F4BBCF802F87
:1012700009CEAA2009F4BBCF893349F49FEFE7EEEA
:10128000F3E09150E040F040E1F700C00000802F13
:101290000E94E62188EF8B0D843010F40E94081E16
:1012A000CC20A9F08091680280FD11C0F701128264
:1012B0008595859585950E947321C7010E944904F3
:1012C000809168028595859585950E944E2185E0DF
:1012D000F701DE01119601900D928A95E1F789815F
:1012E0009A810E94D9209A810AE2809FF0011124FC
:1012F00017E0919FE00DF11D11248981E80FF11D88
:10130000EE0FFF1FE254FE4F8591949123C0809110
:1013100068028770F9F0F70182818823D9F0809103
:10132000140282FD17C082E02A960FB6F894DEBF41
:101330000FBECDBFDF91CF911F910F91FF90EF9026
:10134000DF90CF90BF90AF909F908F900C94F6134A
:1013500069E28CCC2A960FB6F894DEBF0FBECDBFE3
:10136000DF91CF911F910F91FF90EF90DF90CF9081
:10137000BF90AF909F908F9008958295982F937310
:1013800044E0949F900111248C7C86958695282BAF
:10139000822F8575880F2A7A2695822B08953F9291
:1013A0004F925F926F927F928F929F92AF92BF9275
:1013B000CF92DF92EF92FF920F931F93CF93DF9321
:1013C00000D01F92CDB7DEB768E9862E61E0962E79
:1013D00075E4C72E71E0D72E8401AA24A394B12C02
:1013E000F6E85F2EA0E84A2E219A81E0063A180717
:1013F00009F492C0769AEEE4F1E020E030E0D60104
:101400008C9190E0022E02C0959587950A94E2F7A0
:1014100080FF12C08081A82FA295AF70B0E0929695
:101420004C9192978F70750102C0EE0CFF1C8A954B
:10143000E2F7C701842B11C08081A82FA295AF705D
:10144000B0E092969C9192978F70A50101C0440FD5
:101450008A95EAF7842F8095892392968C932F5F43
:101460003F4F31962330310551F6769820EA2A9580
:10147000F1F751E5652E51E0752EE12CF12C219A02
:1014800035E03A95F1F700000E948703F89421981F
:101490002998D3018D913D01E82FE295EF70F0E09E
:1014A00022A18F70A50102C0440F551F8A95E2F753
:1014B000CA01822B82A350927A0040927B008091D5
:1014C0001E01866080937C0080917A008064809306
:1014D0007A0080917A0086FDFCCF8091780020917F
:1014E000790090917A009F7790937A00F801EE0D41
:1014F000FF1D90E0922B9183808378945EE0E50E4F
:10150000F11C6AE2E616F10409F0B9CF0E5F1F4F35
:101510007FEFC71AD70A68CFEEE4F1E080E090E0F1
:1015200066E070E041E050E09B01082E02C0359576
:1015300027950A94E2F720FF12C02081A22FA295DE
:10154000AF70B0E092961C9192972F707A0102C012
:10155000EE0CFF1C2A95E2F79701212B11C0208188
:10156000A22FA295AF70B0E092963C9192972F7007
:101570008A0101C0000F2A95EAF7202F2095232326
:1015800092962C93019631968330910569F60E94CC
:10159000870325E1A22E22E0B22E38E9632E31E046
:1015A000732E312CE12CF12C44244394512C6301F3
:1015B00000E010E0D6018D919C91893BBBE09B0738
:1015C000C0F020918E0220FF11C09F938F931F9334
:1015D0000F93FF92EF92EAE1F1E0FF93EF930E9405
:1015E0007E030FB6F894DEBF0FBECDBFD6011D92AD
:1015F0001C92F5012081422F50E0002E02C055952B
:1016000047950A94E2F7D6018D919C9140FF1AC04C
:1016100082339105C0F5A201002E01C0440F0A9447
:10162000EAF7409524232083339420918E0220FFF3
:101630002AC09F938F931F930F93FF92EF92ECE03A
:10164000F1E018C088339105F0F0A201002E01C02E
:10165000440F0A94EAF7242B2083339420918E02BE
:1016600020FF11C09F938F931F930F93FF92EF92D0
:10167000ECEFF0E0FF93EF930E947E030FB6F89437
:10168000DEBF0FBECDBF0F5F1F4F52E0C50ED11C96
:101690000730110509F08ECF6FEFE61AF60A7FEFDB
:1016A000A71AB70A8EE0680E711C93E0E916F104E0
:1016B00009F07DCF80919601909197018C32A1E045
:1016C0009A0731F00196909397018093960145C057
:1016D000109297011092960188EFE82E80E0F82E84
:1016E00096EFC92E90E0D92EE2EC8E16E1E09E0630
:1016F00041F100E010E080918E0280FF0FC0F40104
:10170000E00FF11F81818F9380818F93FF92EF9281
:101710000E947E030F900F900F900F900E5F1F4F4F
:101720000E30110541F780918E0280FF06C0DF92D6
:10173000CF920E947E030F900F90BEE08B0E911C03
:10174000D3CF80918E0280FF08C084EF90E09F93FA
:101750008F930E947E030F900F9011E0311001C013
:1017600010E000910E02332049F081E08093EE01F9
:101770000E94801D9093ED018093EC018091EE0119
:101780008823B9F08091EC019091ED010E94651DD4
:10179000059778F0E02FF0E0E55EFD4F80911502AF
:1017A0008083809116028183809117028283109238
:1017B000EE010E9446118823D1F119821A821B8200
:1017C000E0900D028E2D90E09C01255E3D4F790149
:1017D00020E03DE04DE251E0BE016F5F7F4FC70169
:1017E0000E94B510882309F468C02EE83CE04AE363
:1017F00051E0BE016F5F7F4FC7010E94B510882383
:1018000009F45BC01092F301E0910D02F0E0E55E97
:10181000FD4FDE0111969E012C5F3F4F8D9190810F
:10182000981380833196A217B307C1F761C0E09186
:101830000E02F0E0E55EFD4FF89483E0AEEFB1E01C
:1018400001900D928A95E1F78EEF91E00E94751656
:101850008093FD017894F894C0900102D090020228
:10186000E0900302F09004028091EF019091F0016A
:10187000A091F101B091F201C816D906EA06FB0663
:10188000D1F0C092EF01D092F001E092F101F0921C
:10189000F2010E94461181110EC00E94741DC61AE9
:1018A000D70AE80AF90AC0920902D0920A02E09225
:1018B0000B02F0920C0278941BC08091F3018F5FB1
:1018C0008093F3018630A0F080918E0280FF08C0E3
:1018D0008BE291E09F938F930E947E030F900F9075
:1018E000E0910D02F0E0E55EFD4F10821182128260
:1018F000812F0F900F900F90DF91CF911F910F913B
:10190000FF90EF90DF90CF90BF90AF909F908F901F
:101910007F906F905F904F903F9008950F931F932B
:10192000CF93DF9300D000D0CDB7DEB74091050252
:101930005091060260910702709108022FB7F89447
:101940008091A3029091A402A091A502B091A60259
:101950002FBF841B950BA60BB70B84369105A105F1
:10196000B10508F443C00E944611882319F00E9473
:10197000741D0EC00E94741D0091090210910A028C
:1019800020910B0230910C02600F711F821F931F78
:10199000DC01CB010296A11DB11D89839A83AB8323
:1019A000BC83809117019091180183509E4F409104
:1019B000160150E04530510510F044E050E0BE0102
:1019C0006F5F7F4F0E94882582E090E00E94542440
:1019D000892B11F080E00BC00E94741D60930502FA
:1019E00070930602809307029093080281E00F90A3
:1019F0000F900F900F90DF91CF911F910F9108954D
:101A0000EF92FF921F93CF93DF9300D000D0CDB71A
:101A1000DEB77B0180E090E00E945424892B09F01E
:101A200065C04091050150E04115510511F041E0BC
:101A300050E0609106017091070163507E4FCE0126
:101A400004960E9488254091F9015091FA01609115
:101A5000FB017091FC012FB7F8948091A302909143
:101A6000A402A091A502B091A6022FBF841B950BE2
:101A7000A60BB70B84369105A105B10538F48EEF9E
:101A800091E00E9475169C81891791F181E090E0A8
:101A90000E945424892BA1F440910F0150E044305E
:101AA000510510F043E050E0609110017091110178
:101AB00063507E4FCE0101960E94882511E001C03F
:101AC00010E08EEF91E00E94751691E02C812813B2
:101AD00090E0192311F10E94741D6093F901709335
:101AE000FA018093FB019093FC010CC010E001C04F
:101AF00011E08091FE019091FF01A0910002898385
:101B00009A83AB83112349F089819A81AB818093B9
:101B1000F6019093F701A093F8018091F60190915E
:101B2000F701A091F801F70180839183A283812FAF
:101B30000F900F900F900F90DF91CF911F91FF901A
:101B4000EF900895CF93DF93CDB7DEB763970FB6CD
:101B5000F894DEBF0FBECDBF84B7877F84BF0FB6BA
:101B6000F894A8958091600088618093600010923D
:101B700060000FBE90E080E80FB6F894809361009B
:101B8000909361000FBE85B7806885BF85B7806878
:101B900085BF89E79BE190939501809394010E9412
:101BA000CA190E94E9198091E20084608093E200E2
:101BB0007894809181028823A1F01091E9001F7030
:101BC0009091EC00892F817090FD80E8182B109285
:101BD000E9008091E80083FD0E94B8161F70109301
:101BE000E90082E084BD93E095BD9AEF97BD8093B4
:101BF0006E001092090210920A0210920B021092CB
:101C00000C028EE090E00E940C2591E0811101C051
:101C100090E090931F010E94461181110E9447237A
:101C2000A1E5B1E041E050E011E0A435B107B1F029
:101C30008D91E82FE295EF70F0E021A18F708A017D
:101C400002C0000F111F8A95E2F7C801922F982B4E
:101C500091A392A18095892382A3E6CFAEE4B1E05F
:101C600021E531E041E050E02A173B07B1F08D91CA
:101C7000E82FE295EF70F0E061A18F708A0102C059
:101C8000000F111F8A95E2F7C801962F982B91A398
:101C900092A18095892382A3E7CF249A2C9A849AD3
:101CA0008C9A6E9A769829982198299880E4809346
:101CB0001E0180911F01811102C093E001C090E0DC
:101CC00090930E0283E0891B80930D020E944611BF
:101CD000811102C00E944A23E5E1F2E08BE192E02B
:101CE000ABE1B2E011921D928E179F07D9F780E009
:101CF00090E00E941425893E9E4F11F00E9414131B
:101D000082E090E00E940C2580938E020E940313D3
:101D1000909314028093130283E090E00E940C25BC
:101D2000682F70E080E090E00E94942180E291E0D2
:101D300090939F0280939E0238E1232E312C40E93C
:101D4000442E41E0542E58E8652E51E0752E8091C6
:101D50008102853009F046C082E891E00E94E502E8
:101D600000E112E180918102853009F037C0809155
:101D70008102843011F11092A20220E40FB6F8948F
:101D8000A895209260000FBE2093600083B7817FEA
:101D9000846083BF83B7816083BF7894889583B75D
:101DA0008E7F83BF0FB6F894A895809160008861FC
:101DB00080936000109260000FBE809180028823A3
:101DC00009F4D0CF0E94CF09EBE1F2E081918111BB
:101DD000ACC132E0E132F307C9F7C4CF0E94CA2197
:101DE0000E94081E0E94CF0981110E94741D92E278
:101DF000A92E92E0B92E2BE1C22E22E0D22E00E0D5
:101E000010E00B8BF60121916F012A8BF501819176
:101E10005F012827298B211116C00F5F1F4F063045
:101E2000110579F78FEF8C878D871E860E94801DA4
:101E30008160782F988B8F874C855D856E8588892A
:101E40000E94A10360C080918E0281FD04C0E12C3C
:101E5000FF24F39436C085E991E00E94E5028BE10E
:101E6000882E82E0982EE12CF12CFF92EF925F9267
:101E70004F920E947E038DE891E00E94E502F401FA
:101E800081914F010E94BD091F928F937F926F92A3
:101E90000E947E0386E891E00E94E502FFEFEF1AC0
:101EA000FF0A0FB6F894DEBF0FBECDBF36E0E316D3
:101EB000F104D9F6CCCFE394FF0C67E0E61609F401
:101EC000ACCF89898F21B9F30E9446118823A9F0EC
:101ED000EF824B8948879A899F2181E009F480E04D
:101EE00089870E94801D8160782F9B878A874F8118
:101EF000588569858B850E94A103F801EE5DFD4F31
:101F00008081F826F08286E0E3E9F2E0DE011196B6
:101F100001900D928A95E1F7E0909502F09096027B
:101F200000919702109198021092950210929602D9
:101F30001092970210929802E11003C0FF2009F45A
:101F400051C080919102909192020E94651D9C0166
:101F500090918D02992309F4FEC02333310508F4D2
:101F600041C09F3F19F09F5F90938D02EE2061F07A
:101F70000E94E81F1E1414F09FEF01C091E0899F9A
:101F8000802D112480939502FF2061F00E94E81FAC
:101F90001F1414F09FEF01C091E0899F802D112440
:101FA00080939602309195023323E1F020919602BE
:101FB0002223C1F075EB3703C0011124992319F0D6
:101FC0009093950203C081E08093950235EB230343
:101FD000C0011124992319F09093960203C081E067
:101FE00080939602011103C0112309F451C080911E
:101FF0008F02909190020E94651D9C0190918B022E
:10200000992309F4ADC02536310508F441C09F3F3E
:1020100019F09F5F90938B02002361F00E94C61F0E
:10202000101614F09FEF01C091E0899F802D1124BC
:1020300080939702112361F00E94C61F111614F0BD
:102040009FEF01C091E0899F802D11248093980219
:10205000309197023323E1F0209198022223C1F0BE
:1020600045EB3403C0011124992319F09093970292
:1020700003C081E08093970265EB2603C001112421
:10208000992319F09093980203C081E080939802FD
:102090008091950281110BC080919602811107C039
:1020A00080919702811103C08091980281110E9452
:1020B000A31EEB82FC820D831E8386E0FE01319617
:1020C000A3E9B2E001900D928A95E1F70E94081E03
:1020D00090912102891709F43ACE0E94081E182F08
:1020E0008093210280918E0282FF31CE80FF04C056
:1020F0008BEA91E00E94E50280918E0280FF0CC085
:102100001F921F9386EA91E09F938F930E947E0314
:102110000F900F900F900F9080918E0280FF17CE3E
:1021200084EA91E00E94E50212CE09BD19BD09B40E
:1021300000FEFDCF8091D8008F7D8093D8008091E4
:10214000E00082608093E0008091E00081FDFCCFA0
:102150000E94CA2107CE2D32314008F004CF42CF71
:102160002D32314008F055CF93CFAF92BF92CF922E
:10217000DF92EF92FF920F931F93CF93DF937C0137
:102180005B01142F052F6901C1E0D0E0F894B5017F
:10219000C701F60109957894811129C02196CB30A9
:1021A000D10589F0CC9F9001CD9F300D300D1124C9
:1021B00080E090E045E34A95F1F70000019628178A
:1021C0003907C1F7E3CF90918E02892F817090FF7C
:1021D0000FC00F931F938CE691E09F938F930E9403
:1021E0007E030F900F900F900F9080E001C081E070
:1021F000DF91CF911F910F91FF90EF90DF90CF90E3
:10220000BF90AF9008959091130292FF0DC0282FB8
:102210002871283019F4877F846006C0282F247124
:10222000243011F48B7F886093FF0DC0282F287114
:10223000283119F4877E846106C0282F2471243147
:1022400011F48B7E88612091140220FF0DC0382F7D
:102250003871383019F4877F816006C0382F3171AA
:10226000313011F48E7F886021FF0DC0282F287136
:10227000283119F4877E816106C0282F2171213110
:1022800011F48E7E886194FD877E0895809171029D
:10229000811118C08091D80080618093D8008AE1B4
:1022A0008A95F1F700C08091D90080FD02C082E0DC
:1022B00001C081E080937102823021F40E94CA192A
:1022C0001092810281E090917102913009F080E0DA
:1022D0000895CF93DF938238910569F1B0F481338B
:1022E000910509F46FC048F48932910509F465C07D
:1022F0008A32910509F46BC08AC08533910509F4CF
:1023000057C089339105B9F082C0833E910571F1C0
:1023100038F4803E9105B1F0823E910511F177C00D
:10232000863E9105B9F1873E9105C9F1843E91053C
:1023300009F06DC024C02091130220FD53C021FD7F
:1023400051C065C08091130280FD46C08091140287
:1023500080FF48C08091130284FD50C183EE90E05D
:102360004FC18091130282FF3AC0F4CF80911302D3
:1023700082FD35C08091140280FD34C0EBCF809186
:10238000140281FF35C08091130284FD37C187EEAE
:1023900090E036C18091130283FF27C0F4CF809173
:1023A000130283FD22C08091140281FD21C0EBCF76
:1023B0008091130285FD1FC021C08091130285FD0D
:1023C0001DC019C08091130286FD1BC01DC08091E5
:1023D000130286FD19C015C089E390E011C182EE99
:1023E00090E00EC180EE90E00BC186EE90E008C157
:1023F00084EE90E005C189E290E002C185E390E0BF
:10240000FFC08AE290E0FCC081E390E0F9C0811552
:1024100031E5930708F069C0811540E59407F0F0B5
:102420009C0174E0369527957A95E1F7922F937089
:10243000482F437021E030E002C0220F331F4A953D
:10244000E2F73C68392B982F9F709695969540E25D
:10245000949FC0011124822B932BD2C0883E9105FA
:1024600068F5803E910508F0CBC0883A9105B8F434
:10247000853A910548F0855AE82FF0E0EC5AFE4F76
:10248000808190E09064BCC08130910509F4B3C0B4
:1024900008F4B4C08430910508F4B0C0B1C08F3BDB
:1024A000910508F0ABC0885AE82FF0E0EE0FFF1F4F
:1024B000E95AFE4F808191819464A2C0811520E287
:1024C000920758F4811531E0930708F099C08D3ECA
:1024D000910508F493C0906593C0811540E494077A
:1024E00008F48CC09F70906A8BC0811525E5920717
:1024F00008F042C0811534E5930728F0982F88270B
:10250000846F906A7DC0811543E59407B0F09C010B
:102510002370332741E050E002C0440F551F2A9535
:10252000E2F7282F2695269580E2289F9001112416
:10253000CA01822B932B9A6863C0811522E592070A
:1025400028F4982F8827816F906A5AC09C012370C5
:10255000332741E050E002C0440F551F2A95E2F7AF
:10256000282F2695269580E2289F90011124CA01E4
:10257000822B932B9C6844C0EC01811539E59307AD
:10258000A8F48115984528F09C2F8827806F906AC1
:1025900037C0C11586E5D80788F58C2F0E94031136
:1025A0008F7190E0982F882790622AC081152AE5C4
:1025B000920790F48C2F8F700E94031194E0D695AF
:1025C000C7959A95E1F7CF70D0E0DC2FCC27D06982
:1025D0009E01282BC90114C090568115904270F4B9
:1025E0008D2F8F710E940311282F2F71CE019927F3
:1025F0009062922B05C081E090E002C080E090E004
:10260000DF91CF910895CF9384E090E00E940C2554
:10261000C82F82E290E00E940C252C2F30E0A90107
:10262000582BCA01CF91089569EE7EEF80E090E0CB
:102630000E94382560E082E090E00E941A2560E068
:1026400083E090E00E941A2510926D0210926E02B3
:1026500010926F021092700260E084E090E00E949D
:102660001A2560E082E290E00E941A2560E085E091
:1026700090E00E941A2560E086E090E00E941A2512
:102680006FEF87E090E00E941A2540E050E0BA0129
:1026900088E090E00E942C2560E08DE090E00E94B0
:1026A0001A2540E050E0BA0188E190E00E942C2514
:1026B00060E087E190E00E941A2540E050E0BA0116
:1026C0008CE190E00E942C2560E070E080E290E0D8
:1026D0000E94382540E050E0BA0188E190E00E9475
:1026E0002C2540E050E0BA018FE090E00E942C25BC
:1026F00040E050E0BA0183E190E00C942C258091F9
:102700006C02811110926C020895809590916B0279
:10271000892380936B020895EF92FF920F931F938A
:10272000CF9390916B0280916A02892B209169026C
:10273000982F922B9093280280916C02882389F025
:10274000892B80932802EAE2F2E097E080E0915042
:1027500029F021912223D9F38F5FF9CF81110E94B3
:102760007F13E0919E02F0919F023097C9F10280A1
:10277000F381E02D88E292E0099580918E0282FF3C
:102780002FC080FF04C08BE293E00E94E50208E2C4
:1027900012E0C8E085E2E82E83E0F82E80918E02F8
:1027A00080FF0CC0F80180811F928F93FF92EF92FF
:1027B0000E947E030F900F900F900F90C1500F5FFB
:1027C0001F4FC111EBCF80918E0280FF09C083E2C1
:1027D00093E0CF911F910F91FF90EF900C94E50241
:1027E000CF911F910F91FF90EF9008952091680273
:1027F0008095822380936802982F977099F430E037
:10280000482F082E000C550B2417350759F09091CE
:10281000140292FD07C08595859585950E944E21ED
:10282000109268020895CF93DF93C0911402C2FB07
:10283000992790F9981719F1D82F80FBC2F9C09306
:1028400014026091130284E090E00E941A256C2F1C
:1028500082E290E00E941A2582E00E94F6138091A5
:102860008E0280FF0CC01F92DF938EE093E09F9357
:102870008F930E947E030F900F900F900F90DF9127
:10288000CF9108958091670290913602891719F0CF
:102890008F5F8770FBCF08950F931F93CF93DF93C4
:1028A0008091350282958F7009F05DC0809132026F
:1028B000882309F458C08091670210913602609114
:1028C000300270913102C0913302D091340291E014
:1028D0006F3F09F090E0292F06E0811709F443C00B
:1028E000209721F07F3F21F030E003C031E001C0AC
:1028F000322F90E030FD34C0089FF001099FF00DA9
:102900001124DF01A95CBD4F11963C91119737133B
:1029100027C03C91361324C012963C911297311176
:102920001FC013964D915C9114974C1B5D0B483C56
:102930005105B0F4809135028F708061809335022B
:10294000E45CFD4F80818F708061808380E392E042
:102950000E944904DF91CF911F910F910C94421472
:1029600001968770BACFDF91CF911F910F91089593
:10297000CF93DF93EC010E9480202AE2829FC00166
:102980001124FC0127E0D29FE00DF11D1124EC0F72
:10299000F11DEE0FFF1FE254FE4F859194910E94AE
:1029A0006911DF91CF9108959F92AF92BF92CF921C
:1029B000DF92EF92FF920F931F93CF93DF93CDB7E8
:1029C000DEB761970FB6F894DEBF0FBECDBF8C01A6
:1029D00085E0F801DE011D9601900D928A95E1F7E0
:1029E000F801E2809091300260913102409133020F
:1029F000509134024115510531F06F3F31F481E0BF
:102A00009F3F19F403C081E001C080E0F82FF1700E
:102A10009F2E80FD1AC1F80130812181C380D480AE
:102A200080E3A82E82E0B82EF0903202F601E41B7B
:102A3000F50BFF2009F4C6C080913502E83CF10592
:102A400008F091C0482F407F09F050C0621311C0B8
:102A500093130FC0FE2CE1100CC08F708061809327
:102A60003502C5010E94490480913502F801858331
:102A700029C1CD2831F02F3F31F481E03F3F19F4D7
:102A800003C081E001C080E080FD03C081E08E25AD
:102A900002C080E090E0F82FF170FF2E80FF1CC094
:102AA000809167024091360256E0841709F4E8C02D
:102AB00090E0589FF001599FF00D1124E95CFD4F03
:102AC0006181261306C06081631303C06281E61230
:102AD00003C001968770E9CFFE2CEE2009F4F2C006
:102AE0008091350281608093350249C0621306C02F
:102AF000931304C0E11002C0F80186C0C8010E940F
:102B00009E21882351F1EE2041F120913502822F40
:102B100082958F7090E0029774F0809130029091CE
:102B2000310298878F831986DB86CA862C87CE016F
:102B300007960E94490486E0F801A0E3B2E0019004
:102B40000D928A95E1F70E944C140AC06217C9F0F1
:102B5000C8010E949E2181111EC0C8010E94490423
:102B6000FF24F394AFC0482F407F81F780E392E0C9
:102B70000E94490486E0F50111928A95E9F7F12C4B
:102B8000A1C09313E5CFE110E3CFF8018583C8011D
:102B90000E94490454C0EE2001F320913502822F97
:102BA00082958F7090E0029734F28091300290917C
:102BB00031029A8389831B82DD82CC822E83CE01EF
:102BC0000196B7CFE83CF105D0F5FE2CEE2029F2B6
:102BD000621327C0931325C02091350220FD18C031
:102BE000822F82958F70482F50E04115510581F05A
:102BF000F80125834F30510541F08F5F982F929552
:102C0000907F822F8F70892B8583C8010E94490491
:102C100086E0F801A0E3B2E001900D928A95E1F719
:102C200051C0C8010E949E21811185CF809135023B
:102C3000816080933502C8010E94490443C086E048
:102C4000F50111928A95E9F73DC0EE2009F485CF90
:102C5000C8010E949E21F82E882309F47ECF86E0C9
:102C6000F801A0E3B2E001900D928A95E1F780911E
:102C70003002909131020E94B8140E944C1422C07C
:102C80003D872E878D859E850E94B814292F229519
:102C90002F70223028F49F7039F0811105C00BC0CD
:102CA000243028F49F7049F4805E883020F0C801F9
:102CB0000E9449049F2CF92C05C0F8019581907F52
:102CC00099F7F9CF8F2D61960FB6F894DEBF0FBE3E
:102CD000CDBFDF91CF911F910F91FF90EF90DF90CB
:102CE000CF90BF90AF909F900895FC01AC014D5FD5
:102CF0005F4F8FEF91E32191822728E030E087FF3B
:102D000003C0880F892701C0880F21503109B9F706
:102D1000E417F50781F70895EF92FF920F931F9341
:102D2000CF93DF937C018B010E945A1C811119C043
:102D3000E70101151105A1F08091E80085FD0AC0A9
:102D40008091E8008E778093E8000E945A1C8823C7
:102D500081F307C089918093F10001501109E9CFF7
:102D600080E0DF91CF911F910F91FF90EF90089538
:102D70001F93CF93DF93CDB7DEB7AA970FB6F89422
:102D8000DEBF0FBECDBFE3E8F2E08091F10081939A
:102D900042E0EB38F407C9F780918402833009F4EC
:102DA00061C030F4813071F0823009F49BC0B2C050
:102DB0008A3009F487C08B3009F46CC0893009F07F
:102DC000A9C020C080918302813A09F0A3C08091FC
:102DD000E800877F8093E8008091870290918802C5
:102DE000892B21F468E087E792E003C060E080E08F
:102DF00090E070E00E94E11C8091E8008B77809366
:102E0000E80088C080918302813209F083C08091FC
:102E1000870290918802029708F07CC08091E800B8
:102E2000877F8093E8008091E80082FD05C0809153
:102E300081028111F8CF6EC02091F3008091F200E1
:102E400090E0922B029731F48091F100813011F0E3
:102E5000863021F48091F100809376028091E80021
:102E60008B7754C080918302813A09F053C08091DE
:102E7000870290918802892B09F04CC08091E8006C
:102E8000877F8093E8008091E80080FFFCCF8091ED
:102E90002C0137C0809183028132E1F58091870255
:102EA00090918802892BB1F58091E800877F80930B
:102EB000E8000E948D1C8091850280932C010E9465
:102EC000CA2128C080918302813221F58091E800D7
:102ED000877F8093E8000E948D1C809186028093FA
:102EE000750218C080918302813AA1F48091E800B4
:102EF000877F8093E8008091E80080FFFCCF80917D
:102F000075028093F1008091E8008E778093E8004D
:102F10000E948D1C8091E80083FFDAC180918302BA
:102F200090918402492F50E04A30510508F0D0C1F9
:102F3000FA01EE59FF4F0C946E25803821F082384B
:102F400009F0C6C108C080917F0290918002992348
:102F500089F082600FC0809187028F70873008F0FF
:102F6000B7C18093E9008091EB0085FB882780F949
:102F70001092E9009091E800977F9093E800809389
:102F8000F1001092F10070C1282F2D7F09F0A0C12F
:102F9000882319F0823061F09BC1809185028130D5
:102FA00009F096C1933009F080E0809380022EC032
:102FB0008091850281112AC0809187028F702FEF46
:102FC000280F263008F084C18093E9002091EB009F
:102FD00020FF1CC0933021F48091EB00806214C06C
:102FE0009091EB0090619093EB0021E030E0A9011B
:102FF00002C0440F551F8A95E2F74093EA001092F1
:10300000EA008091EB0088608093EB001092E90069
:103010008091E800877F8093E8000E948D1C58C152
:10302000811156C1109185021F778091E30080784D
:10303000812B8093E3008091E800877F8093E800F4
:103040000E948D1C8091E80080FFFCCF8091E300FE
:1030500080688093E300111102C082E001C083E028
:103060008093810235C18058823008F031C12091AF
:103070008502309186022C3D53E0350779F583E0D7
:103080008A838AE289834FB7F894DE01139620E0A1
:103090003EE051E2E32FF0E050935700E49120FF2F
:1030A00003C0E295EF703F5FEF708E2F90E0EA3043
:1030B00010F0C79601C0C0968D939D932F5F243169
:1030C00049F74FBF8091E800877F8093E8006AE26C
:1030D00070E0CE0101960E94E11CB5C0809187028C
:1030E00090918802432F552743305105A9F068F489
:1030F0004130510509F4FBC04230510509F0E8C0E8
:103100008BE590E0EEE2F4E04BC04132510529F14D
:103110004232510589F1DCC0C901992781309105FE
:10312000A1F058F0029709F0D3C0EBE9F4E0E49184
:103130008E2F90E0EBE9F4E030C0E1EDF4E0E491B3
:103140008E2F90E0E1EDF4E028C0EFEBF4E0E491A5
:103150008E2F90E0EFEBF4E020C08330910508F073
:10316000B7C0880F991FFC01E257FE4F0190F08114
:10317000E02D89E090E014C08330910508F0A8C0EC
:10318000FC01EE0FFF1FE857FE4F0190F081E02D8C
:10319000DC01AB57BE4F8C9190E0009709F498C0CA
:1031A0002091E800277F2093E80020918902309148
:1031B0008A028217930708F49C0140E0211531052B
:1031C00089F180918102882309F43DC08530D9F1CD
:1031D0008091E80083FD37C08091E80082FD2FC018
:1031E0008091E80080FFEACF4091F3008091F200E7
:1031F00090E0942B2115310559F08830910540F469
:1032000044914093F1003196215031090196F2CF5B
:1032100041E0089709F040E08091E8008E778093C4
:10322000E800CCCF4111CDCF0AC080918102882324
:1032300051F0853041F08091E80083FD04C0809119
:10324000E80082FFF2CF8091E8008B778093E8005E
:103250003FC08038E9F58091E800877F8093E800DF
:10326000809182028093F1008091E8008E77D3CE26
:1032700081112EC080918502909186029927029734
:103280003CF58091E800877F8093E80010918502EB
:10329000109382020E948D1C111106C08091E300E0
:1032A00087FD02C081E001C084E08093810242E09A
:1032B00061EC81E00E94AC1C42E261EC82E00E9481
:1032C000AC1C42E261EC83E00E94AC1C8091810264
:1032D0008091E80083FF10C08091E800877F809391
:1032E000E8008091EB0080628093EB0005C082E1F2
:1032F00090E0E9E8F4E054CFAA960FB6F894DEBF68
:103300000FBECDBFDF91CF911F9108951F920F92F5
:103310000FB60F9211242F933F934F935F936F93A8
:103320007F938F939F93AF93BF93CF93DF93EF934D
:10333000FF93C091E900CF708091EC00D82FD1703D
:1033400080FDD0E81092E9008091F000877F8093A3
:10335000F00078940E94B8161092E9008091F00075
:1033600088608093F000CD2BCF70C093E900FF916F
:10337000EF91DF91CF91BF91AF919F918F917F910D
:103380006F915F914F913F912F910F900FBE0F90D2
:103390001F901895E8EDF0E080818E7F8083109279
:1033A000E2001092DA001092E100A0EEB0E08C9101
:1033B00081608C9380818F77808319BCA7EDB0E00A
:1033C0008C918E7F8C9380818F7E8083109274028B
:1033D0000895CF92DF92EF92FF920F931F93CF93B6
:1033E000DF93C8EDD0E088818F7E8883E7EDF0E041
:1033F00080818160808384E082BF81E08093740259
:1034000088818E7F888302EE10E0F801108210928E
:10341000DA0081EEC82ED12CF601108288818F77D8
:10342000888388818068888388818F7D888319BCA0
:1034300010928102109282021092800210927F02FA
:1034400090EEE92EF12CF70180818B7F80838881BB
:103450008160888342E060E080E00E94AC1CF6015D
:1034600080818E7F8083F80180818160808380816C
:1034700088608083F70180818E7F8083888180616E
:103480008883DF91CF911F910F91FF90EF90DF9094
:10349000CF9008951F920F920FB60F9211242F9381
:1034A0003F934F935F936F937F938F939F93AF93CC
:1034B000BF93EF93FF938091E10082FF49C0809119
:1034C000E20082FF45C08091E1008B7F8093E100A4
:1034D000209173022F5F822F62E30E944E25992371
:1034E00019F02093730234C010927302809172021B
:1034F000882371F180918102843041F58091E90047
:103500008F702091EC00922F917020FD90E8892B14
:1035100093E09093E9009091EB0090FF14C090919C
:10352000EE0097FF10C09091E80095FF03C0109245
:10353000F100F9CF9091E80090FF05C09091E8006C
:103540009E779093E8008F708093E900109272024A
:103550008091DA0080FF32C08091D80080FF2EC0B9
:103560008091DA008E7F8093DA008091D90080FF0D
:103570001CC080E189BD82E189BD09B400FEFDCF98
:1035800081E0809381028AE194E00E94E5028091CB
:103590007402811113C00E94CA190E94E919809116
:1035A000E20084608093E20009C019BC109281029D
:1035B0008EE194E00E94E502109274028091E10095
:1035C00080FF1BC08091E20080FF17C08091E20065
:1035D0008E7F8093E2008091E20080618093E20020
:1035E0008091D80080628093D80019BC85E08093D8
:1035F000810282E294E00E94E5028091E10084FF72
:1036000034C08091E20084FF30C080E189BD82E156
:1036100089BD09B400FEFDCF8091D8008F7D8093D5
:10362000D8008091E1008F7E8093E1008091E200DC
:103630008F7E8093E2008091E20081608093E200BF
:1036400080918202882311F084E007C08091E3001A
:1036500087FD02C081E001C083E08093810286E2A1
:1036600094E00E94E502809181028091E10083FF55
:103670002BC08091E20083FF27C08091E100877F0B
:103680008093E10082E08093810210928202809117
:10369000E1008E7F8093E1008091E2008E7F809335
:1036A000E2008091E20080618093E20042E060E00D
:1036B00080E00E94AC1C8091F00088608093F00054
:1036C0008AE294E00E94E502FF91EF91BF91AF91F1
:1036D0009F918F917F916F915F914F913F912F912A
:1036E0000F900FBE0F901F9018950895809176024D
:1036F00008959FB7F894109272029FBF9091810233
:10370000943009F057C09091E9009F703091EC001F
:10371000232F217030FD20E8922B23E02093E90035
:103720002091EB0020FF43C02091EE0027FF3FC017
:103730002091AA02222321F02091E80025FF37C022
:103740001092AA0226E03091E80035FD15C03091B4
:103750008102343061F53091EB0035FD28C02150F5
:1037600021F481E08093AA0222C0EFE9FFE03197C3
:10377000F1F700C00000E7CF8093F1008091E800EE
:1037800085FD0AC08091E80080FFFCCF8091E800B1
:103790008E778093E80006C08FB7F89421E02093DD
:1037A00072028FBF9F709093E90080E008959F7030
:1037B0009093E9008FEF08958093A7027093A90278
:1037C0006093A80280918102843001F582E08093A9
:1037D000E9008FEF9091E800815095FD06C095EDCE
:1037E0009A95F1F700008111F5CF8091E80085FFEF
:1037F0000DC040E050E063E070E087EA92E00E9494
:103800008C168091E8008E778093E8000895BC01C3
:1038100084E00C94DC1BBC0183E00C94DC1B22E0F4
:103820002093E9002FEF3091E800215035FD06C0CC
:1038300035ED3A95F1F700002111F5CF2091E80020
:1038400025FF0BC040E050E066E070E00E948C165F
:103850008091E8008E778093E8000895CF93DF93FE
:1038600021E02093E9002FEF3091E800215035FD51
:1038700006C035ED3A95F1F700002111F5CF209102
:10388000E80025FF14C0EC0140E050E068E070E083
:103890000E948C168091E8008E778093E80088E083
:1038A000FE01A7E7B2E001900D928A95E1F7DF9162
:1038B000CF9108952091E4003091E50095E6409184
:1038C000EC00842F817040FF23C08091E80080FDD0
:1038D0001DC080918102882399F0853099F08091F4
:1038E000EB0085FD11C04091E4005091E5002417E4
:1038F000350729F3915011F09A01E1CF84E0089542
:1039000082E0089583E0089581E0089580E00895BD
:103910004091E80042FFDDCF08958091830287FF48
:1039200011C08091E80082FD05C080918102811163
:10393000F8CF11C08091E8008B770BC08091810295
:10394000882349F08091E80080FFF8CF8091E8005B
:103950008E778093E8000895982F973068F59093BC
:10396000E900981739F07091EC002091ED0050912A
:10397000F00003C0242F762F50E021FD02C09F5F8E
:10398000ECCF3091EB003E7F3093EB003091ED00B7
:103990003D7F3093ED003091EB0031603093EB00D0
:1039A0007093EC002093ED005093F0002091EE0016
:1039B00027FDE5CF80E008958F708093E90081E0D6
:1039C00008952091890230918A022617370748F01E
:1039D0006115710539F42091E8002E772093E800F5
:1039E00001C0B901FC0120E06115710579F18091F8
:1039F00081028823F1F18530F1F18091E80083FDA7
:103A00003CC08091E80082FD2EC08091E80080FFDC
:103A1000EBCF2091F3008091F20090E0922B6115A2
:103A2000710551F08830910538F421912093F1000F
:103A3000615071090196F3CF21E0089709F020E069
:103A40008091E8008E778093E800CECF2111CFCF10
:103A50000AC080918102882361F0853061F08091F5
:103A6000E80083FD0AC08091E80082FFF2CF80E089
:103A7000089582E0089583E0089581E008957894A0
:103A80001F920F920FB60F9211248F939F93AF93B3
:103A9000BF938091A3029091A402A091A502B0913E
:103AA000A6020196A11DB11D8093A3029093A402CA
:103AB000A093A502B093A602BF91AF919F918F9161
:103AC0000F900FBE0F901F9018959C014FB7F89460
:103AD0008091A3029091A402A091A502B091A602A8
:103AE0004FBF821B930B08952FB7F8946091A302E8
:103AF0007091A4028091A5029091A6022FBF089513
:103B00002FB7F8948091A3029091A402A091A502EE
:103B1000B091A6022FBF08951F920F920FB60F9279
:103B200011248F939F93AF93BF938091A202811131
:103B300013C08091A3029091A402A091A502B0911C
:103B4000A6024196A11DB11D8093A3029093A402E9
:103B5000A093A502B093A602BF91AF919F918F91C0
:103B60000F900FBE0F901F9018959C012A5F3F4F3A
:103B7000FC014281461301C012820196821793070D
:103B8000B9F708959C01FC0132969FEF80E04191C6
:103B9000461789F09F3F19F4411101C0982F8F5F9C
:103BA0008630A9F79F3F39F0F901E90FF11D97FD24
:103BB000FA956283089508952091A0023091A102A0
:103BC0002817390771F09093A1028093A002E09129
:103BD0009E02F0919F02309721F00084F185E02D44
:103BE0000994089520919C0230919D02281739076D
:103BF00071F090939D0280939C02E0919E02F0915F
:103C00009F02309721F00680F781E02D09940895F6
:103C10000E944611882351F0E0919E02F0919F028C
:103C2000309721F00190F081E02D099480E0089513
:103C3000EF92FF920F93CF93DF93C42FD22FFC010B
:103C400082818823D1F040939B020E94801D909333
:103C50009A028093990280E28C0F883008F06DC040
:103C6000C77081E001C0880FCA95EAF7DF91CF9154
:103C70000F91FF90EF900C94DC2180919B024813F0
:103C80004BC08091990290919A020E94651D883CD8
:103C9000910508F041C0CD17C9F080E28C0F883043
:103CA00040F4C77081E001C0880FCA95EAF70E940E
:103CB000D52180E28D0F883048F481E09D2F9770E8
:103CC00001C0880F9A95EAF70E94DC21093319F0A8
:103CD000E12CF12C03C080E5E82EF12C802F0E940E
:103CE0004622E114F10451F08FE99FE00197F1F7CA
:103CF00000C0000091E0E91AF108F3CF802F0E9484
:103D0000E62180E28D0F8830C0F4D77081E001C0D9
:103D1000880FDA95EAF70AC080E28C0F883068F4E1
:103D2000C77081E001C0880FCA95EAF7DF91CF9193
:103D30000F91FF90EF900C94D521DF91CF910F91CF
:103D4000FF90EF90089580918E0283FF7EC08CEFEC
:103D500094E00E94E502809194021F928F9387EF76
:103D600094E09F938F930E947E0385EF94E00E94DE
:103D7000E50280919502282F082E000C330B3F930B
:103D80008F9382EF94E09F938F930E947E0380EF46
:103D900094E00E94E50280919602282F082E000CE4
:103DA000330B3F938F938DEE94E09F938F930E94FC
:103DB0007E038BEE94E00E94E50280919702282F0B
:103DC000082E000C330B3F938F9388EE94E09F9363
:103DD0008F930E947E0386EE94E00E94E50280911C
:103DE0009802282F082E000C330B3F938F9383EEFD
:103DF00094E09F938F930E947E0380EE94E00E9454
:103E0000E50280918D021F928F938DED94E09F9338
:103E10008F930E947E038BED94E00E94E5028091D7
:103E20008C021F928F9388ED94E09F938F930E9452
:103E30007E0385ED94E00E94E5028DB79EB74C9617
:103E40000FB6F8949EBF0FBE8DBF0E94801D2091BB
:103E50009502211104C020919602222321F0909313
:103E600092028093910220919702211104C0209127
:103E70009802222321F09093900280938F02E09188
:103E80009E02F0919F02309749F082E08093930266
:103E90000480F581E02D83E992E0099408958D3E38
:103EA00039F49091960297FF35C01092960259C04E
:103EB0008E3E29F4909196021916BCF32BC0909176
:103EC00095028F3E29F497FF25C01092950249C0B4
:103ED000803F19F41916CCF31DC090919702893FC9
:103EE00029F41916BCF4109297023BC08A3F19F4CA
:103EF00097FF10C0F8CF8B3F39F49091980297FF4D
:103F000009C0109298022DC08C3F21F49091980224
:103F10001916BCF39FE0980F983080F421E030E050
:103F2000A90102C0440F551F9A95E2F7CA01809576
:103F30009091940289238093940213C08D3F21F4C1
:103F400080918C028E7F0BC08E3F21F480918C0279
:103F50008D7F05C08F3F29F480918C028B7F8093E9
:103F60008C0280919502811106C080919602811188
:103F700002C010928D0280919702811106C080913B
:103F80009802811102C010928B02089580918C02D8
:103F900080FD16C081FD16C082FD18C080918B0285
:103FA000882391F0883290F428E0829FC001112488
:103FB00068E270E00E945A25862F672B29F007C01F
:103FC00082E0089584E0089581E0089588E00895EE
:103FD00080918C0280FD14C081FD14C082FD16C04A
:103FE00080918D02882381F0843180F422E3829FC6
:103FF000C001112464E170E00E945A25862F0895C3
:104000008CE0089589E1089585E0089582E308959C
:104010008D3E21F40E94E81F819504C08E3E29F454
:104020000E94E81F8093960208958F3E21F40E941B
:10403000E81F819504C0803F29F40E94E81F809307
:1040400095020895893F19F40E94C61F05C08A3F52
:1040500031F40E94C61F81958093970208958B3F8B
:1040600021F40E94C61F819504C08C3F29F40E9450
:10407000C61F8093980208959FE0980F983078F4B7
:1040800021E030E0A90102C0440F551F9A95E2F7E4
:10409000CA0190919402892B8093940208958D3FD8
:1040A00021F480918C0281600BC08E3F21F48091BD
:1040B0008C02826005C08F3F29F480918C0284605D
:1040C00080938C02089580E090E00E94F21D80E0D1
:1040D00090E00E94DC1D10926A02109269020E9418
:1040E0008C13E3E9F2E086E0DF011D928A95E9F79F
:1040F00010928D0210928B0210928C020C94A31ECF
:104100008F929F92AF92BF92DF92EF92FF920F93A6
:104110001F93CF93DF9380900F0290901002A09096
:104120001102B090120240916D0250916E026091A6
:104130006F0270917002842A952AA62AB72ACFE1CD
:10414000D0E027E0929F700111249AE2D92E082F27
:1041500010E0D501C4010C2E04C0B695A795979523
:1041600087950A94D2F780FD04C0219790F780E0EC
:1041700014C0DC9EF001DD9EF00D1124EE0DFF1D3C
:10418000E00FF11FEE0FFF1FE254FE4F8591949157
:104190000E946911019749F38C2FDF91CF911F91F4
:1041A0000F91FF90EF90DF90BF90AF909F908F9016
:1041B000089527E0929F800D1124682F66956695DB
:1041C0006695982F977085E0689FB001112440E0B4
:1041D00050E080E0FB01E40FF51FE555FD4F208125
:1041E00030E0092E02C0369527950A94E2F7217037
:1041F0003327042E01C0220F0A94EAF7822B4F5F67
:104200005F4F4530510531F7089527E0929F800DAB
:104210001124E82FE695E695E695877051E001C0F8
:10422000550F8A95EAF785E0E89FF0011124E555DE
:10423000FD4F20E030E070E04081CB01022E02C053
:10424000969587950A94E2F7817081958427852356
:10425000842781932F5F3F4F2530310569F70895FB
:104260000F931F938B019C01067011272227332780
:10427000DC01CB01063011052105310511F4886000
:1042800001C0877F80930F0290931002A0931102C8
:10429000B09312021F910F910C9463200F931F9300
:1042A00041E050E060E070E004C0440F551F661F1D
:1042B000771F8A95D2F740955095609570958091BB
:1042C0000F0290911002A0911102B09112028A0186
:1042D0009B01082319232A233B23C901B8011F91FD
:1042E0000F910C9430210F931F9341E050E060E058
:1042F00070E004C0440F551F661F771F8A95D2F7E0
:1043000080910F0290911002A0911102B0911202BF
:104310008A019B01082B192B2A2B3B2BC901B801C1
:104320001F910F910C94302160936D0270936E0277
:1043300080936F02909370020C946320FC01808143
:1043400091810E94B814292F2F70E92FE295EF7008
:104350004E2F50E0FA013297EE30F105B8F4E459EF
:10436000FF4F0C946E25803F99F018F4883E70F44E
:104370000FC0843F59F40CC0883E50F0813F31F4A7
:1043800007C0822F869586958695089580E00895CA
:1043900081E0089510926B0286E0EAE2F2E0DF012C
:1043A0001D928A95E9F70C946320882321F00E94DE
:1043B00085130C948C130895882339F090916B0227
:1043C000892B80936B020C948C130895882309F435
:1043D0005CC0823869F40E94081E81FF56C069E300
:1043E00088E292E00E94C21D0E948C1369E30EC015
:1043F000833891F40E94081E80FF47C063E588E27D
:1044000092E00E94C21D0E948C1363E588E292E054
:104410000E94B51D0C948C13843869F40E94081E08
:1044200082FF33C067E488E292E00E94C21D0E94CE
:104430008C1367E4EBCF9CEF980F913A10F4682F40
:10444000E5CF90E2980F983050F4877091E001C06A
:10445000990F8A95EAF7892F0E948513DBCF9BE598
:10446000980F933020F480E090E00C94F21D98E5D2
:10447000980F973120F480E090E00C94DC1D8D3E85
:1044800020F00E944F1F0C94A31E0895CF93882301
:1044900009F49EC0C82F8238B1F40E94081E81FD25
:1044A00097C069E388E292E00E94C21D0E948C13CB
:1044B0002FEF81EE94E0215080409040E1F700C062
:1044C000000069E317C08338E1F40E94081E80FDF4
:1044D0007FC063E588E292E00E94C21D0E948C13B7
:1044E0002FEF81EE94E0215080409040E1F700C032
:1044F000000063E588E292E00E94B51DCF910C9424
:104500008C138438B1F40E94081E82FD61C067E4F8
:1045100088E292E00E94C21D0E948C132FEF81EE70
:1045200094E0215080409040E1F700C0000067E433
:10453000E1CF8CEF8C0F813A80F4EAE2F2E080E385
:1045400092E02191C217E1F18E179F07D1F76C2FEE
:1045500088E292E00E94C21DD1CF80E28C0F8830A9
:1045600068F4C77081E090E001C0880FCA95EAF74F
:1045700090916B02892B80936B02C0CFEBE5EC0F1F
:10458000E33040F4F0E0EC5AFE4F808190E0CF91B0
:104590000C94F21DE8E5EC0FE73150F4F0E0EE0F7B
:1045A000FF1FE95AFE4F80819181CF910C94DC1D51
:1045B000CD3E70F08C2F0E940820CF910C94A31E4A
:1045C0006C2F88E292E00E94B51D0E948C13BFCF31
:1045D000CF9108958EE14A9B02C08150E1F74A9B3A
:1045E000FECF08955A9880E28A95F1F75A9A089575
:1045F000FC012AE02A95F1F728E090E080E031E024
:1046000040E14A95F1F7880F4A9B02C081609327E9
:1046100000C0000040E14A95F1F7215089F720E100
:104620002A95F1F729B100C0000030E13A95F1F781
:1046300022FB222720F992272081920F9083089550
:10464000EF92FF920F931F93CF93DF931F92CDB7FB
:10465000DEB719828C017C01E60EF11C0E151F05D8
:1046600051F00E94EA22CE0101960E94F822F80140
:1046700081938F01F3CF81E09981911180E00F90B8
:10468000DF91CF911F910F91FF90EF900895529A73
:104690005A9A089552985A9AEA9AE9E6F0E0808187
:1046A0008F7C80830895615091E001C0990F6A95D5
:1046B000EAF720E031E0992361F0492F482319F00F
:1046C0005A9A232701C05A9840E24A95F1F79695E5
:1046D000F2CF222311F05A9A01C05A9880E28A95AB
:1046E000F1F75A980895FF920F931F93CF93DF939A
:1046F000EC018C01060F111DC017D10741F0F99094
:104700000E94F22268E08F2D0E945323F5CFDF91A3
:10471000CF911F910F91FF9008951F920F920FB6A6
:104720000F921124EF92FF920F931F932F933F93B9
:104730004F935F936F937F938F939F93AF93BF93A9
:10474000EF93FF93CF93DF931F92CDB7DEB719821C
:104750000E94EA22CE0101960E94F822A82FA69577
:10476000A695A6959A2F969595702A2F2570920F4B
:10477000292F237096959695920F877089137CC088
:104780008981811179C0A43008F076C080E18A95D2
:10479000F1F75A9A529AB2E0BA95F1F700C05A98D6
:1047A000EA2EF12CEAE0AE9FD0011124A050BF4FB9
:1047B0001896ED91FC9119973097B1F060914C01EA
:1047C00070914D0116962D913C911797260F371F2A
:1047D00013968D919C911497680F791F15964C91A3
:1047E000159712968C9109958AE08E9DF0018F9D08
:1047F000F00D1124E050FF4F6581662351F0809148
:104800004C0190914D0126813781820F931F0E94A8
:1048100073230E94F222F0E1FA95F1F75A98529828
:104820005A9A80E18A95F1F78AE08E9D80018F9DEA
:10483000100D112400501F4FD80112966C91129741
:10484000662399F080914C0190914D0113962D9122
:104850003C911497820F931F0E942023D801ED9161
:10486000FC91811105C082E004C0D801ED91FC915A
:1048700088E080830E94EA220F90DF91CF91FF9120
:10488000EF91BF91AF919F918F917F916F915F91C8
:104890004F913F912F911F910F91FF90EF900F90AB
:1048A0000FBE0F901F9018950F931F93CF93DF9318
:1048B000843091050CF0A9C02AE0289FF001299FBF
:1048C000F00D1124E050FF4F20813181232B09F49A
:1048D0009CC0EC01F894529A5A9885E08A95F1F7B9
:1048E00000008C2F869585709C2F9570890F982FCE
:1048F0009370869586958E0123E0000F111F2A95EF
:10490000E1F7890F082B0E94F222A4E0AA95F1F7A3
:1049100000C068E0802F0E945323B0E1BA95F1F700
:1049200052985A9A4A9902C000C0FCCF87E090E0A2
:104930004A9B17C0019799F4529A5A9A8AE08C9F21
:10494000F0018D9FF00D1124E050FF4F0190F08198
:10495000E02D81E08083789481E090E058C000C031
:10496000E7CF8AE08C9F80018D9F100D11240050AD
:104970001F4FF80165816623B9F080914C01909139
:104980004D0126813781820F931F0E9420238111C0
:104990000BC0529A5A9AD801ED91FC9182E0808323
:1049A000789482E090E033C00E94EA22B0E2BA95A7
:1049B000F1F75A98529AE0E1EA95F1F78AE08C9F74
:1049C000F0018D9FF00D1124E050FF4F62816623AE
:1049D00051F080914C0190914D0123813481820FDF
:1049E000931F0E9473230E94F2228AE08C9FF001A1
:1049F0008D9FF00D1124E050FF4F0190F081E02DCC
:104A00001082789480E090E002C084E090E0DF9132
:104A1000CF911F910F910895F999FECF92BD81BD5D
:104A2000F89A992780B50895A8E1B0E042E050E0F7
:104A30000C944025262FF999FECF92BD81BDF89A9E
:104A4000019700B4021639F01FBA20BD0FB6F894D2
:104A5000FA9AF99A0FBE08950396272F0E941B25F4
:104A60000E941A25252F0E941B25242F0C941B25FC
:104A70000196272F0E941B250C941A25DC01CB01DF
:104A8000FC01F999FECF06C0F2BDE1BDF89A31965E
:104A900000B40D9241505040B8F70895991B79E049
:104AA00004C0991F961708F0961B881F7A95C9F7BE
:104AB0008095089597FB072E16F4009407D077FD94
:104AC00009D00E94742507FC05D03EF4909581958D
:104AD0009F4F0895709561957F4F0895EE0FFF1FCA
:104AE0000590F491E02D0994AA1BBB1B51E107C06E
:104AF000AA1FBB1FA617B70710F0A61BB70B881F6E
:104B0000991F5A95A9F780959095BC01CD010895FC
:104B1000FB01DC0102C001900D9241505040D8F7DA
:064B20000895F894FFCF98
:104B2600F5010000000100000000F501000000038F
:104B360001000000F501040400000000000040012F
:104B4600761B2E1C0F1C0B1C071C751B01736C613E
:104B560076655F6D61747269780073796E635F74F0
:104B6600696D65720006040300010205FD0133321A
:104B760036946697818283E200E900EA00B500B6C2
:104B860000B700CD008301CC008A01920194012177
:104B960002230224022502260227022A02B300B4B7
:104BA600006F007000407B22DA035F033D03400480
:044BB6005904720428
:00000001FF
