:100000000C94C3050C940A060C940A060C94EC2973
:100010000C940A060C940A060C940A060C940A0620
:100020000C940A060C940A060C94BB1C0C94701BCE
:100030000C94911E0C940A060C940A060C940A0661
:100040000C940A060C940A060C940A060C940A06F0
:100050000C940A060C94441E0C940A060C940A068E
:100060000C940A060C940A060C940A060C940A06D0
:100070000C940A060C940A060C940A060C940A06C0
:100080000C940A060C940A060C940A060C940A06B0
:100090000C940A060C940A060C940A060C940A06A0
:1000A0000C940A060C940A060C940A060C0A0C0A14
:1000B0003E0A3E0AB00ACC0A630C630CD70AB50BA1
:1000C000C60BC60BC321EA218E23EA218E233622DA
:1000D00059228E234F235E23182518252B252B25E7
:1000E00021252B252B252B251825182526252B25C5
:1000F0002B2526250A00253464000A004572726FFC
:10010000723A20646973636F6E6E656374207370F6
:100110006C69742068616C660A0044454255473A30
:100120002064697361626C65642E0A00444542551F
:10013000473A20656E61626C65642E0A004F6E65F9
:1001400073686F743A206163746976653A20256438
:100150000A000A002530325820006B6579626F6111
:1001600072645F7265706F72743A20004661696CE8
:10017000656420746F2065786563757465202573E8
:100180000A00646973706C61795F736574757032AD
:10019000206661696C65640A0000DA0281FFD9F1AA
:1001A000DB20A4A62EAF646973706C61795F666C06
:1001B0006970706564206661696C65640A0000A0FE
:1001C000C06F6C65645F696E697420636D64206ED6
:1001D0006F726D616C20726F746174696F6E2066EE
:1001E00061696C65640A0000A1C86F6C65645F6931
:1001F0006E697420636D64207365742031206661BC
:10020000696C65640A0000AED580A81FD300408DDC
:100210001420005B735D000A0025303862003A202C
:100220000025303258000A722F63203031323334C7
:100230003536370A00808182838485868788898A5B
:100240008B8C8D8E8F9091929394A0A1A2A3A4A544
:10025000A6A7A8A9AAABACADAEAFB0B1B2B3B4C0BB
:10026000C1C2C3C4C5C6C7C8C9CACBCCCDCECFD006
:10027000D1D2D3D4006F6C65645F72656E646572B1
:1002800039302064617461206661696C65640A00BC
:100290006F6C65645F72656E646572206461746121
:1002A000206661696C65640A006F6C65645F7265E5
:1002B0006E646572206F666673657420636F6D6D22
:1002C000616E64206661696C65640A000A0025300D
:1002D0003258006B6579626F6172645F7365745F39
:1002E0006C65643A20006F6C65645F6F66662063BE
:1002F0006D64206661696C65640A0000AE5B435DF5
:10030000005B445D005B535D005B575D005B525DCD
:10031000000631FF0974A1010975150026FF00953B
:1003200020750881020976150026FF0095207508C2
:100330009102C005010902A10185020901A1000580
:100340000919012908150025019508750181020583
:1003500001093009311581257F950275088106094B
:10036000381581257F950175088106050C0A38022C
:100370001581257F950175088106C0C0050109809A
:10038000A101850319012AB700150126B7009501BF
:1003900075108100C0050C0901A101850419012A0D
:1003A000A002150126A002950175108100C005016B
:1003B0000906A101050719E029E71500250195089F
:1003C000750181029501750881010507190029FF52
:1003D000150026FF009506750881000508190129FA
:1003E00005950575019102950175039101C00902FA
:1003F0005B00030100A0FA090400000103010100F1
:100400000921110100012240000705810308000AAB
:10041000090401000103000000092111010001226B
:100420007B000705820320000A0904020002030082
:100430000000092111010001222200070583032089
:100440000001070503032000011201000200000063
:1004500008EDFE716B010001020001220343006FF1
:100460000072006E0065002000450043002000522D
:1004700000650076006900760061006C00000010E5
:100480000343006900700075006C006F0074000089
:10049000000403090407087F0807003E5B4F5B3E2A
:1004A000003E6B4F6B3E001C3E7C3E1C00183C7EA9
:1004B0003C18001C577D571C001C5E7F5E1C000012
:1004C000183C180000FFE7C3E7FF000018241800DD
:1004D00000FFE7DBE7FF0030483A060E00262979E7
:1004E000292600407F05050700407F05253F005A6B
:1004F0003CE73C5A007F3E1C1C0800081C1C3E7F49
:100500000014227F2214005F5F005F5F0006097FF6
:10051000017F00006689956A0060606060600094F9
:10052000A2FFA2940008047E04080010207E201080
:100530000008082A1C0800081C2A0808001E1010C1
:100540001010000C1E0C1E0C0030383E3830000617
:100550000E3E0E060000000000000000005F0000DC
:1005600000000700070000147F147F1400242A7F76
:100570002A120023130864620036495620500000F6
:100580000807030000001C224100000041221C005B
:10059000002A1C7F1C2A0008083E08080000807002
:1005A0003000000808080808000000606000002013
:1005B00010080402003E5149453E0000427F4000C1
:1005C000007249494946002141494D33001814122F
:1005D0007F10002745454539003C4A4949310041D3
:1005E0002111090700364949493600464949291E63
:1005F0000000001400000000403400000000081457
:1006000022410014141414140000412214080002A2
:1006100001590906003E415D594E007C1211127CC1
:10062000007F49494936003E41414122007F414116
:10063000413E007F49494941007F09090901003EC7
:1006400041415173007F0808087F0000417F41004D
:10065000002040413F01007F08142241007F4040BC
:100660004040007F021C027F007F0408107F003E94
:100670004141413E007F09090906003E4151215E8A
:10068000007F091929460026494949320003017FA4
:100690000103003F4040403F001F2040201F003F1B
:1006A0004038403F006314081463000304780403D7
:1006B000006159494D4300007F4141410002040857
:1006C000102000004141417F00040201020400406B
:1006D0004040404000000307080000205454784088
:1006E000007F2844443800384444442800384444B7
:1006F000287F0038545454180000087E090200185E
:10070000A4A49C78007F080404780000447D400085
:10071000002040403D00007F102844000000417F41
:100720004000007C04780478007C080404780038D9
:100730004444443800FC182424180018242418FCCD
:10074000007C080404080048545454240004043F66
:100750004424003C4040207C001C2040201C003CE5
:100760004030403C004428102844004C9090907C3D
:10077000004464544C4400000836410000000077F7
:100780000000000041360800000201020402003CA3
:100790002623263C00000000000000404040F0F806
:1007A000F8FF38FFF8F83FF8F8FF38FFF8F8F040A6
:1007B000404000000000000080C0C0C0800000C0B9
:1007C000C08000000080C0C000C0C0000080C0C069
:1007D0000000000000C0C0C0C0C000C0C0000000D9
:1007E0000000000000000000000000000000000009
:1007F00000000000000000000000000000000000F9
:1008000000000000000000000000000000000000E8
:1008100000000000C0F0F8FC3E1E06010000007F52
:100820004141417F007F4141417F000080C0E07E27
:100830005B4F5BFEC00000C000DCD7DEDEDED7DC35
:1008400000C00000000000000000000000000000E8
:100850000000000000000000000000494949FFFFBF
:10086000FFFFE0DFBFBF00BFBFDFE0FFFFFFFF49CB
:10087000494900000000001F3F6060E0BF1F007F8B
:100880007F071E381E077F7F007F7F0E1F3B716032
:1008900000000000007F7F0C0C0C007E7E007F7E3D
:1008A0000303007F7E03037E7E03037F7E000F3EF3
:1008B000703C063C703E0F00327B49493F7E007F12
:1008C0007E0303001E3F69696F26000000000000E0
:1008D00000000000030F1F3F3C7870600000007FA5
:1008E0004141417F007F4141417F00307B7F783033
:1008F000202030787F3B0003000F7F0F0F0F7F0F0A
:1009000000030000000000000000000000000000E4
:100910000000000000000000000000010101070FBE
:100920000F7F0F7F0F0F7E0F0F7F0F7F0F0F0701BE
:1009300001010000000000000000000001010000B3
:1009400000000000000000000000000000000000A7
:100950000000000000000000000000000000000097
:100960000000000000000000000000000000000087
:100970000000000000000000000000000000000077
:100980000000000000000000000000000000000067
:100990000000000000000000000000000000000057
:1009A0000000000000000000000000000000000047
:1009B0000000000000000000000000000000000037
:1009C0000000000000000000000000000000000027
:1009D00000000000002B0014001A0008001500178A
:1009E00000E300E00004001600070009000A00010F
:1009F00051E1001D001B000600190005002C002A13
:100A000000130012000C0018001C00E60034003334
:100A1000000F000E000D000B000251E500380037FA
:100A200000360010001100280029001E001F0020C1
:100A30000021002200E300E00000000000000000B0
:100A40000000000151E10000000000000000000073
:100A5000002C002A0027002600250024002300E6A1
:100A600000000000004F00520051005000025100F1
:100A70000000000000000000000000280029001E07
:100A8000021F02200221022202E300E00000000017
:100A9000000000000000000151E100000000000023
:100AA00000000000002C002A002702260225022454
:100AB000022302E6003500310230022F022E002D03
:100AC0000002513502310030002F002E022D022885
:100AD00000005CAB5D0000000000000000E300C30C
:100AE0005CC65CC85CCA5C000000000151C45CC705
:100AF0005CC95CCB5C000000002C00000000000022
:100B000000000000000000E60000000000000000FF
:100B10000000000000025100000000000000000082
:100B20000000002800290A002575002F0025750007
:100B30005D28002564002000256400200025640055
:100B400020002564007C0025303258006D6F7573DD
:100B5000656B6579205B62746E7C782079207620E5
:100B6000685D287265702F61636C293A205B006FA5
:100B70006C65645F6F6E20636D64206661696C658F
:100B8000640A0000AF0011241FBECFEFDAE0DEBF21
:100B9000CDBF04B603FE27C08091160590911705BE
:100BA000A0911805B09119058730904BA740B04B24
:100BB000D1F4109216051092170510921805109294
:100BC000190514BE84B7877F84BF0FB6F894A89523
:100BD00080916000886180936000109260000FBE79
:100BE000E0E0F8E3099511E0A0E0B1E0E0E1F8E52C
:100BF00002C005900D92A83AB107D9F725E0A8EAFE
:100C0000B1E001C01D92A631B207E1F70E94D415F0
:100C10000C94062C0C940000FF93EF93E091A80134
:100C2000F091A901309709F00995EF91FF9108958E
:100C3000FC018591803011F0EFDFFBCF0895FF2795
:100C4000E0E230E247FF0CC0419597FF09C0EDE2BA
:100C50006095709580959095611D711D811D911D08
:100C600027FF02C0219530E350E2AA27660F771FC5
:100C7000881F991FAA1FA41710F0A41B63955A95EB
:100C8000A9F7AA3008F0A95FA05DAF93F3956115AD
:100C900071058105910541F7ED3211F4EF93F3955C
:100CA000F21718F43F93F395FBCF8F91B5DFFA95C8
:100CB000E1F70895E991F9918591803021F085322D
:100CC00019F0AADFF9CF089520E0E8945591553244
:100CD000C1F3503311F4689455915A3348F450538A
:100CE00090F3220F022E220F220F200D250FF4CF9A
:100CF0000EF4219589919991533619F3533729F1BF
:100D0000533559F1BC0188279927E8945C3621F4C2
:100D10008991999168945591543639F446EF7EF053
:100D200077FF0DC08FEF9FEF0AC055374AE039F0CB
:100D3000583540E121F0523642E009F00895FF9322
:100D4000EF937DDFEF91FF91B7CFFF93EF93FC011E
:100D500081918030B9F360DFFBCFFF93EF9368DFC1
:100D6000F1CFDF93CF93CDB7DEB72596A3DFCF9139
:100D7000DF9108951F93CF93DF93CDB7DEB76797C9
:100D80000FB6F894DEBF0FBECDBF4B8B5C8B6D8B67
:100D90007E8B8F8B611110924B0286E09E01235F48
:100DA0003F4FD901E82F1D92EA95E9F795E0FE0142
:100DB0007396D90101900D929A95E1F79C894E891D
:100DC0005F897B897D879E876F87598B488BF90167
:100DD000DE01179601900D928A95E1F7CE010796F4
:100DE0000E94C11381113EC086E0FE013796DE01EC
:100DF000119601900D928A95E1F7FF81E8856A8549
:100E00007B856115710531F0EF3F31F481E0FF3FE3
:100E100019F403C081E001C080E080FD23C020916F
:100E2000170230E0C9010196877099274091480266
:100E300050E08417950779F1F983EA837D836C8309
:100E400096E0929FD001939FB00D1124A85EBD4FF4
:100E5000FE01319601900D929A95E1F78093170269
:100E60000E944B1316E08091480290911702891757
:100E7000F9F0189FC0011124885E9D4F0E94C11394
:100E80008823B1F08091480290E0019687709927FD
:100E900080934802E8CF0E942F25109217021092EB
:100EA0004802E1E1F2E086E0DF011D928A95E9F770
:100EB00067960FB6F894DEBF0FBECDBFDF91CF911E
:100EC0001F9108958F929F92AF92BF92CF92DF921F
:100ED000EF92FF920F931F93CF93DF93CDB7DEB7BF
:100EE0002A970FB6F894DEBF0FBECDBFFC0100817C
:100EF000D18083819481892B39F01FEFD11206C0F4
:100F000091E00F3F19F403C091E001C090E090FD23
:100F10003AC57F0185E0DE01169601900D928A9513
:100F2000E1F7F70122818E819F81222349F00E94FF
:100F3000C923182F682F8E819F810E946A2403C0C5
:100F40000E943E24182F2AE2129FF001112437E05C
:100F5000D39EE00DF11D1124E00FF11DEE0FFF1FD8
:100F6000EB52F64F05911491043F8CE5180741F1BF
:100F700090F4093DECE51E07E9F00A3DFCE51F078A
:100F800089F1083D2CE51207B1F506E221EE41EEAC
:100F900068ED7CE52CC0063F3CE51307E9F0B0F0B6
:100FA000073F9CE5190739F507E225EE46EE67EFA6
:100FB0007CE51DC007E225EE45EE69ED7CE517C036
:100FC00006E221EE40EE64EF7CE511C007E225EE7B
:100FD00044EE65EF7CE50BC006E221EE42EE66EFE3
:100FE0007CE505C008E221E045EE6AED7CE5C7013D
:100FF0000E941D1FA5C4F7018281882309F445C101
:101000001092B2020430FDE51F0758F40B3F2CE5A7
:10101000120760F4C80182509C45449708F01FC134
:1010200005C002363DE5130709F019C10E940C12F4
:10103000909376028093750200318CE5180709F4CD
:10104000CAC008F041C00830ECE51E0709F4A4C08E
:10105000F0F404302CE5120709F48CC068F4023077
:101060008CE5180709F482C003301C4509F0E7C07D
:10107000809175028260E1C00630ECE51E0709F43C
:1010800083C008F085C0809175028860D6C00C309E
:101090002CE5120709F490C068F40A308CE51807B3
:1010A00009F47EC008F084C00E942F25809175024B
:1010B0008068C3C00E30ECE51E0709F481C008F05B
:1010C00086C08091750294C00D3F2CE5120709F48B
:1010D0007BC038F504318CE5180709F49AC058F440
:1010E0000231ECE51E0709F47AC008F07EC0809159
:1010F00075028F7BA2C00B3F2CE51207F1F108F0BF
:101100003FC005311C4509F09AC08091750282FBF1
:10111000222720F991E0922790FB82F990FB83F936
:101120008CC001309DE5190709F467C050F4809127
:1011300076020F3FFCE51F07C1F108F05BC08D7F11
:1011400065C003303DE5130709F471C008F46DC0B4
:1011500002361D4509F073C08091750284FB222779
:1011600020F991E0922790FB84F967C08091750285
:10117000816063C08091750216C08091760216C0AE
:1011800080917602826042C080917502806155C074
:1011900080917502806251C08091750280644DC05B
:1011A000809175028860846048C0826081602EC032
:1011B000809175028E7F41C0809175028D7F3DC008
:1011C00080917502877F39C08091760214C080912A
:1011D00075028F7E32C0809175028F7D2EC00E9475
:1011E0002F25809175028F7728C080917502877FA7
:1011F0008B7F23C08D7F8E7F09C080917602982FD0
:10120000909591708E7F892B90FB81F98093760267
:1012100016C00E942F258091750287FB222720F996
:1012200091E0922790FB87F908C061E001C060E07F
:101230008EE090E00E94962B02C080937502609130
:1012400075021091760284E090E00E94962B612F47
:1012500082E290E00E94962B0E942F2571C30631F6
:101260002CE5120719F580914C028A7A91E009F475
:1012700090E090930802882311F065E301C069E2D1
:1012800089E092E00E94C71E0EC006311C4509F09D
:1012900067C080910802882309F473C365E389E07D
:1012A00092E00E94BA1E0E9495124AC30F3DECE5DF
:1012B0001E0709F447C040F401152CE5120799F008
:1012C00001301C4561F14CC00C358DE5180709F45F
:1012D00044C00D359DE51907C1F10B351D4509F0D9
:1012E0003FC081E03BC00E942F25FFEF04E31CE0DC
:1012F000F15000401040E1F700C0000087E797E799
:1013000090930108809300089AE088E10FB6F89462
:10131000A895809360000FBE90936000FFCF8091EE
:101320000705982F9095917090FB80F980930705A1
:10133000992319F08CE291E002C08AE191E00E94C9
:101340001806FEC20E941D12FBC28091760282FB2B
:10135000882780F991E0892701C080E00E941C1352
:10136000F70182810081D180882359F0802F9D2D43
:101370000E94C923182F682F802F9D2D0E946A2458
:1013800005C0802F9D2D0E943E24182F2AE2129F17
:10139000F001112437E0D39EE00DF11D1124E00F80
:1013A000F11DEE0FFF1FEB52F64F859194910E94B5
:1013B00072108C01982EF701D280A580A2943FE094
:1013C000A322809149028770B9F0DD20A9F0812F16
:1013D000807F803421F080E2800F883068F0809137
:1013E000760282FD09C082E00E94FF1280914902CC
:1013F0008770CC24C3948111C12CB12EB2949FE08C
:10140000B9228B2D90E08C30910508F05CC2FC0174
:10141000EA5AFF4F0C94EA2B812F807F1F7088239C
:1014200011F01295107FDD20B9F0112309F438C2B4
:1014300080E2800F883010F0911006C080914C023D
:10144000182B10934C0205C080914B02182B10935F
:101450004B020E94951224C2802F0E944B2511231B
:1014600009F431C2005E083078F1992069F11095D5
:1014700080914B02182310934B0229C0812F807F4B
:101480001F70803211F01295107F992021F0F1E049
:101490009F16D9F149C08091760282FF1BC0DD20E2
:1014A00069F0112339F080914C02182B10934C02F3
:1014B0000E94951280E00E94AB2505C280E00E9448
:1014C0004B25112309F4FFC1812F0E948E120E9427
:1014D0009512F9C1DD2081F080914D02AA2051F0D2
:1014E00001E0A01207C0182B181709F4ECC11093E3
:1014F0004D02E9C1812B10C0AA2021F021E0A216E3
:1015000009F4E1C10E94881227C0DD2041F035E0D6
:101510003A1508F4D8C1812F0E944125D4C184E036
:101520008A1508F4D0C118C0DD2049F0AA2099F32B
:10153000F701858180FFB4C18F708583ECCFAA202D
:1015400059F0093309F0BCC1FFEF17EE23E0F15069
:1015500010402040E1F7B2C1812F0E943A25B3C16B
:10156000812F86958695837019F0813059F0ABC133
:10157000DD2019F0C801937002C080E090E00E9465
:10158000F71EA7C1DD2019F0C801937002C080E0EA
:1015900090E00E94E11E9DC1802FDD2019F00E9485
:1015A000332702C00E947A260E948E2792C1812F83
:1015B000837009F069C0D1108AC1902F92959695D9
:1015C0009770990F990F802F8F70882E912CA12CD6
:1015D000B12C092E04C0880C991CAA1CBB1C0A94AF
:1015E000D2F704FF12C04FE050E060E070E004C0AA
:1015F000440F551F661F771F9A95D2F7DB01CA016A
:1016000080959095A095B09503C080E090E0DC01B6
:1016100016951695412F4370423019F1C8F4009188
:101620004E0210914F0220915002309151024130F0
:1016300059F088299929AA29BB29BC01CD01602329
:101640007123822393230AC0802A912AA22AB32AD3
:10165000BC01CD01682979298A299B290E94F92496
:1016600036C188299929AA29BB2900914E021091D7
:101670004F022091500230915102BC01CD016027F0
:10168000712782279327EACFDD2019F0812F8170FF
:1016900001C08695882309F41AC1902F92959695DA
:1016A0009770990F990F802F8F70882E912CA12CF5
:1016B000B12C092E04C0880C991CAA1CBB1C0A94CE
:1016C000D2F704FF12C04FE050E060E070E004C0C9
:1016D000440F551F661F771F9A95D2F7DB01CA0189
:1016E00080959095A095B09503C080E090E0DC01D6
:1016F00016951695412F43704230D9F068F5009148
:101700007102109172022091730230917402413083
:1017100059F088299929AA29BB29BC01CD01602348
:101720007123822393231EC0802A912AA22AB32ADE
:1017300013C088299929AA29BB2900917102109107
:1017400072022091730230917402BC01CD016027B6
:1017500071278227932706C0BC01CD01682979290A
:101760008A299B290E949524B2C01F70DD2039F080
:10177000812F0E94D824802F0E944125A8C0802F4D
:101780000E943A25812F0E94B324A1C0802F32EFFE
:10179000931609F443C0391538F090EF991659F0B3
:1017A000E1EF9E16B1F177C0F3EF9F16F1F124EF50
:1017B000921659F170C0DD2019F134E03A1508F4A1
:1017C00082C01F7181E090E0A0E0B0E0AC01BD01FB
:1017D00004C0440F551F661F771F1A95D2F78091DA
:1017E000710290917202A0917302B09174028A0109
:1017F0009B01082719272A273B27C901B80129C0BF
:1018000025E02A1508F45FC0DCCF8091760282FFC4
:1018100023C0DD2029F0812F8F7130C0DD20D9F366
:10182000812F8F710E94B3244EC0DD2079F01F718B
:1018300081E090E0A0E0B0E0BC01CD0104C0660F03
:10184000771F881F991F1A95D2F703C060E070E0D8
:10185000CB010E94952437C0DD2099F01F71812FA4
:101860000E94D8248091760282FD07C038E0139F41
:10187000C0011124836080934902812F0E94D824E3
:1018800022C081E00E94FF1281E08A15E0F482E02C
:101890000E94FF1218C0DD2029F0AA2009F4BBCF56
:1018A000802F09CEAA2009F4BBCF893349F49FEFDA
:1018B000E7EEF3E09150E040F040E1F700C00000B7
:1018C000802F0E944B2588EF8B0D843010F40E94EE
:1018D0000D1FCC20A9F08091490280FD11C0F701B5
:1018E00012828595859585950E94D824C7010E940E
:1018F0006207809149028595859585950E94B3245C
:1019000085E0F701DE01119601900D928A95E1F7CD
:1019100089819A810E943E249A810AE2809FF00187
:10192000112417E0919FE00DF11D11248981E80F2A
:10193000F11DEE0FFF1FEB52F64F8591949123C0DE
:10194000809149028770F9F0F70182818823D9F0EC
:101950008091760282FD17C082E02A960FB6F89435
:10196000DEBF0FBECDBFDF91CF911F910F91FF90D2
:10197000EF90DF90CF90BF90AF909F908F900C949E
:10198000FF1269E28CCC2A960FB6F894DEBF0FBE28
:10199000CDBFDF91CF911F910F91FF90EF90DF901E
:1019A000CF90BF90AF909F908F9008958295982F81
:1019B000937344E0949F900111248C7C86958695C6
:1019C000282B822F8575880F2A7A2695822B0895D9
:1019D0002F923F924F925F926F927F928F929F923F
:1019E000AF92BF92CF92DF92EF92FF920F931F932D
:1019F000CF93DF93CDB7DEB727970FB6F894DEBF4E
:101A00000FBECDBF0AEA11E060E5662E61E0762EDA
:101A10001D830C83512C80E090E061E070E0219AFE
:101A2000769AD3012D913D0120FF02C02B9A01C06F
:101A30002B9821FF02C02A9A01C02A9822FF02C0D7
:101A40002E9A01C02E987698B0EABA95F1F75B010C
:101A5000082E02C0AA0CBB1C0A94E2F73A2C4A2CAE
:101A60004094E7E7F2E05AE8852E51E0952E20E019
:101A700030E0219A45E04A95F1F700004AE8E42E6B
:101A800041E0F42EBDE8EB16B1E0FB06D9F0D7013A
:101A9000DD907D01AD2DA295AF704A2F50E0DA01A7
:101AA00092962C90BD2DBF70DB2EDB0102C0AA0FD9
:101AB000BB1FDA94E2F76D01C094C220DA0192965E
:101AC000CC92E0CFF89421982998D401FD904D0153
:101AD000AF2DA295AF704A2F50E0DA019296DC90BC
:101AE000BF2DBF70FB2EDB0102C0AA0FBB1FFA94F3
:101AF000E2F77D01ED28DA019296EC92B5E1BA9514
:101B0000F1F7000046E840937A0050E850937B00DC
:101B1000A0911E01A660A0937C00A0917A00A06411
:101B2000A0937A00A0917A00A6FDFCCFA091780046
:101B3000F0907900B0E0AD015F295F834E83F090B3
:101B40007A005F2D5F7750937A007894EC80FD8067
:101B5000E20EF31E4E815F81D7014D935C93D080DE
:101B6000ED2CF12CEA20FB20EF2849F0E0906B02ED
:101B7000F0906C024E155F0578F4D4200AC0E09016
:101B80006D02F0906E02AE81BF81EA16FB0620F472
:101B9000D328D082A1E001C0A0E05A2A3196225F6A
:101BA0003F4F2A32310509F064CF0196EC81FD8167
:101BB0003296FD83EC838730910509F030CF219A6E
:101BC0008091FE019091FF019C012F5F3F4F8C326D
:101BD000914029F03093FF012093FE0135C010920F
:101BE000FF011092FE0186EFC82E80E0D82E94EF00
:101BF000A92E90E0B92E41E0043D140709F1E12C33
:101C0000F12CF801EE0DFF1D81818F9380818F9360
:101C1000DF92CF920E94B10622E0E20EF11C0F90FB
:101C20000F900F900F903EE0E316F10451F7BF9232
:101C3000AF920E94B106025F1F4F0F900F90DBCF53
:101C40008AEF90E00E94180651106EC00E94451065
:101C5000882311F119821A821B8200916F0210E011
:101C600003581D4F25E53FE048E351E0BE016F5F9B
:101C70007F4FC8010E94F70F882309F482C022E633
:101C800035E145E451E0BE016F5F7F4FC8010E941E
:101C9000F70F811195C075C0E0917002F0E0E35834
:101CA000FD4FF89483E0ACE5B2E001900D928A9587
:101CB000E1F78CE592E00E94C61F80935B02789466
:101CC000F894C0905F02D0906002E0906102F090C2
:101CD00062028091000290910102A0910202B091F3
:101CE0000302C816D906EA06FB06D1F0C09200022C
:101CF000D0920102E0920202F09203020E9445108B
:101D000081110EC00E94791EC61AD70AE80AF90A84
:101D1000C0926702D0926802E0926902F0926A0271
:101D2000789400E010E002C001E010E0F090700252
:101D300000FF09C081E0809307020E94851E9093F6
:101D400006028093050280910702882309F450C09F
:101D500080910502909106020E946A1E059708F480
:101D600047C0EF2DF0E0E358FD4F8091770280836C
:101D70008091780281838091790282831092070298
:101D800037C0809104028F5F809304028531B0F0E8
:101D90008091070580FF08C08CEF90E09F938F93A0
:101DA0000E94B1060F900F90E0916F02F0E0E358AF
:101DB000FD4F10821182128201E0B8CF00E0B6CF51
:101DC00010920402E0916F02F0E0E358FD4FDE0153
:101DD00011969E012C5F3F4F00E08D9190819817E6
:101DE00011F0808301E031962A173B07B1F79ECFAF
:101DF000802F27960FB6F894DEBF0FBECDBFDF91C0
:101E0000CF911F910F91FF90EF90DF90CF90BF90F7
:101E1000AF909F908F907F906F905F904F903F908A
:101E20002F9008959091750292FF0DC0282F287170
:101E3000283019F4877F846006C0282F247124304D
:101E400011F48B7F886093FF0DC0282F28712831F3
:101E500019F4877E846106C0282F2471243111F47F
:101E60008B7E88612091760220FF0DC0382F38715B
:101E7000383019F4877F816006C0382F31713130D6
:101E800011F48E7F886021FF0DC0282F2871283122
:101E900019F4877E816106C0282F2171213111F448
:101EA0008E7E886194FD877E0895EF92FF921F9346
:101EB000CF93DF9300D000D0CDB7DEB77B0180E0B9
:101EC00090E00E94B32A892B09F065C0409105017A
:101ED00050E04115510511F041E050E060910601DC
:101EE00070910701655A7D4FCE0104960E94FD2B2B
:101EF00040915602509157026091580270915902D8
:101F00002FB7F8948091BA029091BB02A091BC02C5
:101F1000B091BD022FBF841B950BA60BB70B843667
:101F20009105A105B10538F48CE592E00E94C61F29
:101F30009C81891791F181E090E00E94B32A892B5E
:101F4000A1F440910F0150E04430510510F043E0FE
:101F500050E06091100170911101655A7D4FCE01E2
:101F600001960E94FD2B11E001C010E08CE592E08B
:101F70000E94C61F91E02C81281390E0192311F1D3
:101F80000E94791E60935602709357028093580204
:101F9000909359020CC010E001C011E080915C02E6
:101FA00090915D02A0915E0289839A83AB83112395
:101FB00049F089819A81AB818093530290935402B6
:101FC000A09355028091530290915402A091550222
:101FD000F70180839183A283812F0F900F900F9040
:101FE0000F90DF91CF911F91FF90EF900895AF92E6
:101FF000BF92CF92DF92EF92FF920F931F93CF93F6
:10200000DF937C015B01142F052F6901C1E0D0E053
:10201000F894B501C701F60109957894811129C09A
:102020002196CB30D10589F0CC9F9001CD9F300D0A
:10203000300D112480E090E045E34A95F1F700006F
:10204000019628173907C1F7E3CF90910705892F2B
:10205000817090FF0FC00F931F938CE691E09F93C8
:102060008F930E94B1060F900F900F900F9080E019
:1020700001C081E0DF91CF911F910F91FF90EF9010
:10208000DF90CF90BF90AF90089580915202811160
:1020900018C08091D80080618093D8008AE18A9529
:1020A000F1F700C08091D90080FD02C082E001C03C
:1020B00081E080935202823021F40E94B41B10927E
:1020C000D10281E090915202913009F080E00895B0
:1020D0000E94451080931F010E94451081110C94AD
:1020E000A6290895CF93DF938238910569F1B0F462
:1020F0008133910509F46FC048F48932910509F4E0
:1021000065C08A32910509F46BC08AC08533910598
:1021100009F457C089339105B9F082C0833E910517
:1021200071F138F4803E9105B1F0823E910511F1D4
:1021300077C0863E9105B9F1873E9105C9F1843E8D
:10214000910509F06DC024C02091750220FD53C097
:1021500021FD51C065C08091750280FD46C080910F
:10216000760280FF48C08091750284FD50C183EEE5
:1021700090E04FC18091750282FF3AC0F4CF809108
:10218000750282FD35C08091760280FD34C0EBCFB0
:102190008091760281FF35C08091750284FD37C140
:1021A00087EE90E036C18091750283FF27C0F4CF9F
:1021B0008091750283FD22C08091760281FD21C04D
:1021C000EBCF8091750285FD1FC021C08091750203
:1021D00085FD1DC019C08091750286FD1BC01DC004
:1021E0008091750286FD19C015C089E390E011C188
:1021F00082EE90E00EC180EE90E00BC186EE90E0A2
:1022000008C184EE90E005C189E290E002C185E357
:1022100090E0FFC08AE290E0FCC081E390E0F9C06A
:10222000811531E5930708F069C0811540E59407F1
:10223000F0F09C0174E0369527957A95E1F7922F9E
:102240009370482F437021E030E002C0220F331F0B
:102250004A95E2F73C68392B982F9F709695969592
:1022600040E2949FC0011124822B932BD2C0883E60
:10227000910568F5803E910508F0CBC0883A91053C
:10228000B8F4853A910548F0855AE82FF0E0E95A0C
:10229000FE4F808190E09064BCC08130910509F4CC
:1022A000B3C008F4B4C08430910508F4B0C0B1C024
:1022B0008F3B910508F0ABC0885AE82FF0E0EE0F95
:1022C000FF1FE65AFE4F808191819464A2C0811560
:1022D00020E2920758F4811531E0930708F099C085
:1022E0008D3E910508F493C0906593C0811540E43C
:1022F000940708F48CC09F70906A8BC0811525E507
:10230000920708F042C0811534E5930728F0982F12
:102310008827846F906A7DC0811543E59407B0F0EB
:102320009C012370332741E050E002C0440F551F49
:102330002A95E2F7282F2695269580E2289F90017E
:102340001124CA01822B932B9A6863C0811522E560
:10235000920728F4982F8827816F906A5AC09C01B1
:102360002370332741E050E002C0440F551F2A95E7
:10237000E2F7282F2695269580E2289F90011124C8
:10238000CA01822B932B9C6844C0EC01811539E56E
:102390009307A8F48115984528F09C2F8827806F13
:1023A000906A37C0C11586E5D80788F58C2F0E9442
:1023B000120F8F7190E0982F882790622AC08115A4
:1023C0002AE5920790F48C2F8F700E94120F94E0F0
:1023D000D695C7959A95E1F7CF70D0E0DC2FCC2742
:1023E000D0699E01282BC90114C0905681159042D6
:1023F00070F48D2F8F710E94120F282F2F71CE0134
:1024000099279062922B05C081E090E002C080E0A5
:1024100090E0DF91CF910895CF9384E090E00E9407
:10242000882BC82F82E290E00E94882B2C2F30E06E
:10243000A901582BCA01CF91089569EE7EEF80E083
:1024400090E00E94B42B60E082E090E00E94962B26
:1024500060E083E090E00E94962B10924E02109272
:102460004F02109250021092510260E084E090E01E
:102470000E94962B60E082E290E00E94962B60E042
:1024800085E090E00E94962B60E086E090E00E945C
:10249000962B6FEF87E090E00E94962B40E050E093
:1024A000BA0188E090E00E94A82B60E08DE090E007
:1024B0000E94962B40E050E0BA0188E190E00E9433
:1024C000A82B60E087E190E00E94962B40E050E06E
:1024D000BA018CE190E00E94A82B60E070E080E2FD
:1024E00090E00E94B42B40E050E0BA0188E190E017
:1024F0000E94A82B40E050E0BA018FE090E00E94DB
:10250000A82B40E050E0BA0183E190E00C94A82BA6
:1025100080914D02811110924D0208958095909105
:102520004C02892380934C020895EF92FF920F93FF
:102530001F93CF9390914C0280914B02892B209155
:102540004A02982F922B9093090280914D02882382
:1025500089F0892B80930902EBE0F2E097E080E0BC
:10256000915029F021912223D9F38F5FF9CF811166
:102570000E948812E091B502F091B6023097C9F13D
:102580000280F381E02D89E092E0099580910705B2
:1025900082FF2FC080FF04C08AE591E00E941806E8
:1025A00009E012E0C8E084E5E82E81E0F82E809191
:1025B000070580FF0CC0F80180811F928F93FF9266
:1025C000EF920E94B1060F900F900F900F90C150A4
:1025D0000F5F1F4FC111EBCF8091070580FF09C02E
:1025E00082E591E0CF911F910F91FF90EF900C94B5
:1025F0001806CF911F910F91FF90EF9008952091B1
:1026000049028095822380934902982F977099F40C
:1026100030E0482F082E000C550B2417350759F0D1
:102620009091760292FD07C08595859585950E94CB
:10263000B324109249020895CF93DF93C09176029C
:10264000C2FB992790F9981719F1D82F80FBC2F98E
:10265000C09376026091750284E090E00E94962B10
:102660006C2F82E290E00E94962B82E00E94FF1283
:102670008091070580FF0CC01F92DF938DE391E0EE
:102680009F938F930E94B1060F900F900F900F9021
:10269000DF91CF9108958091480290911702891798
:1026A00019F08F5F8770FBCF08950F931F93CF931F
:1026B000DF938091160282958F7009F05DC0809142
:1026C0001302882309F458C0809148021091170220
:1026D0006091110270911202C0911402D091150202
:1026E00091E06F3F09F090E0292F06E0811709F48F
:1026F00043C0209721F07F3F21F030E003C031E05C
:1027000001C0322F90E030FD34C0089FF001099FD6
:10271000F00D1124DF01A85EBD4F11963C91119779
:10272000371327C03C91361324C012963C91129760
:1027300031111FC013964D915C9114974C1B5D0B8A
:10274000483C5105B0F4809116028F7080618093EF
:102750001602E35EFD4F80818F708061808381E18E
:1027600092E00E946207DF91CF911F910F910C942C
:102770004B1301968770BACFDF91CF911F910F91C4
:1027800008959F92AF92BF92CF92DF92EF92FF9205
:102790000F931F93CF93DF93CDB7DEB761970FB63B
:1027A000F894DEBF0FBECDBF8C0185E0F801DE01DD
:1027B0001D9601900D928A95E1F7F801E2809091C3
:1027C00011026091120240911402509115024115BC
:1027D000510531F06F3F31F481E09F3F19F403C0A0
:1027E00081E001C080E0F82FF1709F2E80FD1AC1BA
:1027F000F80130812181C380D48081E1A82E82E05C
:10280000B82EF0901302F601E41BF50BFF2009F43B
:10281000C6C080911602E83CF10508F091C0482F2F
:10282000407F09F050C0621311C093130FC0FE2CFB
:10283000E1100CC08F70806180931602C5010E9468
:10284000620780911602F801858329C1CD2831F0F5
:102850002F3F31F481E03F3F19F403C081E001C014
:1028600080E080FD03C081E08E2502C080E090E022
:10287000F82FF170FF2E80FF1CC08091480240911C
:10288000170256E0841709F4E8C090E0589FF00161
:10289000599FF00D1124E85EFD4F6181261306C09B
:1028A0006081631303C06281E61203C001968770E2
:1028B000E9CFFE2CEE2009F4F2C08091160281606F
:1028C0008093160249C0621306C0931304C0E1103E
:1028D00002C0F80186C0C8010E940325882351F177
:1028E000EE2041F120911602822F82958F7090E0A8
:1028F000029774F0809111029091120298878F8351
:102900001986DB86CA862C87CE0107960E9462074D
:1029100086E0F801A1E1B2E001900D928A95E1F71D
:102920000E9455130AC06217C9F0C8010E9403250E
:1029300081111EC0C8010E946207FF24F394AFC03A
:10294000482F407F81F781E192E00E94620786E094
:10295000F50111928A95E9F7F12CA1C09313E5CF07
:10296000E110E3CFF8018583C8010E94620754C0DB
:10297000EE2001F320911602822F82958F7090E055
:10298000029734F280911102909112029A83898306
:102990001B82DD82CC822E83CE010196B7CFE83C2C
:1029A000F105D0F5FE2CEE2029F2621327C0931317
:1029B00025C02091160220FD18C0822F82958F70AD
:1029C000482F50E04115510581F0F80125834F3023
:1029D000510541F08F5F982F9295907F822F8F70D5
:1029E000892B8583C8010E94620786E0F801A1E176
:1029F000B2E001900D928A95E1F751C0C8010E94A2
:102A00000325811185CF8091160281608093160283
:102A1000C8010E94620743C086E0F50111928A95C1
:102A2000E9F73DC0EE2009F485CFC8010E940325D7
:102A3000F82E882309F47ECF86E0F801A1E1B2E008
:102A400001900D928A95E1F7809111029091120206
:102A50000E9422240E94551322C03D872E878D8517
:102A60009E850E942224292F22952F70223028F43F
:102A70009F7039F0811105C00BC0243028F49F707D
:102A800049F4805E883020F0C8010E9462079F2CC4
:102A9000F92C05C0F8019581907F99F7F9CF8F2D1A
:102AA00061960FB6F894DEBF0FBECDBFDF91CF9118
:102AB0001F910F91FF90EF90DF90CF90BF90AF905C
:102AC0009F9008950F931F93CF93DF9300D000D072
:102AD000CDB7DEB740916302509164026091650208
:102AE000709166022FB7F8948091BA029091BB0260
:102AF000A091BC02B091BD022FBF841B950BA60B09
:102B0000B70B84369105A105B10508F443C00E94B6
:102B10004510882319F00E94791E0EC00E94791E6C
:102B200000916702109168022091690230916A0257
:102B3000600F711F821F931FDC01CB010296A11D44
:102B4000B11D89839A83AB83BC83809117019091D7
:102B50001801855A9D4F4091160150E045305105AE
:102B600010F044E050E0BE016F5F7F4F0E94FD2BEC
:102B700082E090E00E94B32A892B11F080E00BC024
:102B80000E94791E609363027093640280936502D1
:102B90009093660281E00F900F900F900F90DF915D
:102BA000CF911F910F910895CF93DF93CDB7DEB7EB
:102BB00062970FB6F894DEBF0FBECDBF84B7877F94
:102BC00084BF0FB6F894A8958091600088618093C7
:102BD0006000109260000FBE90E080E80FB6F8949D
:102BE00080936100909361000FBE85B7806885BFB8
:102BF00085B7806885BF8FE89AE19093A90180939B
:102C0000A8010E94B41B0E945A1C8091E2008460BB
:102C10008093E20078948091D1028823A1F01091F2
:102C2000E9001F709091EC00892F817090FD80E881
:102C3000182B1092E9008091E80083FD0E94DE20AD
:102C40001F701093E90082E084BD93E095BD9AEF78
:102C500097BD80936E0010926702109268021092E6
:102C6000690210926A020E9468108091340190916A
:102C70003501A0913601B091370180936B0290939A
:102C80006C02A0936D02B0936E020E946810AAE8D5
:102C9000B1E041E050E071E0AD38B707B1F08D919F
:102CA000E82FE295EF70F0E021A18F70BA0102C029
:102CB000660F771F8A95E2F7CB01922F982B91A38D
:102CC00092A18095892382A3E6CFADE8B1E041E0EF
:102CD00050E071E0A039B707B1F08D91E82FE2958F
:102CE000EF70F0E021A18F70BA0102C0660F771F6C
:102CF0008A95E2F7CB01922F982B91A392A1809510
:102D0000892382A3E6CF249A2C9A849A8C9A6E9A6D
:102D100076982998219A80E480931E010E9445109C
:102D2000811102C00E94A92980911F01811102C056
:102D300093E001C090E09093700283E0891B809340
:102D40006F020E944510811102C00E94A929E7E785
:102D5000F2E08DE792E0ADE7B2E011921D928E179E
:102D60009F07D9F780E090E00E94902B893E9E4F0C
:102D700011F00E941D1282E090E00E94882B809347
:102D800007050E940C12909376028093750283E0EF
:102D900090E00E94882B682F70E080E090E00E9415
:102DA000F92482E08093A30280E88093DB020E94F2
:102DB0003A286DE070E086E092E00E948920892B3D
:102DC00019F08AEE91E00EC08091A30263E070E0FA
:102DD00081FD0BC087EE91E00E948920892B71F064
:102DE00081EC91E00E9418063FC08EEB91E00E94BA
:102DF0008920892B19F086EA91E0F4CF6DE070E02C
:102E000089E991E00E948920892B19F082E891E0FC
:102E1000E9CF0E94791EDC01CB01805A9541AF4F6A
:102E2000BF4F8093120590931305A0931405B093A0
:102E30001505EEEDF2E080E092E0DF019C011D92CD
:102E400021503040E1F7F093E504E093E4048FEF84
:102E50009FEF9093DD028093DC0281E08093AF02CC
:102E60008093AE021092A40280E291E09093B602A9
:102E70008093B5028091D102853009F04CC083E186
:102E800092E00E941806A0E4FA2E00E112E180917F
:102E9000D102853009F03BC08091D102843029F104
:102EA0000E94A81F1092B90268E170E00FB6F89472
:102EB000A895609360000FBEF092600083B7817F99
:102EC000846083BF83B7816083BF7894889583B71C
:102ED0008E7F83BF0FB6F894A895809160008861BB
:102EE00080936000109260000FBE8091D002882312
:102EF00009F4CDCF0E94E80CEDE7F2E08191811159
:102F0000EAC283E892E08E179F07C1F7C0CF0E9404
:102F10002F250E940D1F0E94E80CD82E81110E94BF
:102F2000791EE8EAAE2EE2E0BE2EFDE7EF2EF2E0DB
:102F3000FF2E00E010E0302ED7017D907D01F501DD
:102F4000C1905F01C724B1F40F5F1F4F0630110518
:102F500091F78FEF8C878D871E860E94851E81607A
:102F6000782F988B8F874C855D856E8588890E9428
:102F7000BA0662C08091070581FD04C0812C9924A6
:102F800093943AC086E292E00E9418067DE7872E6D
:102F900072E0972E412C512C5F924F9221E232E049
:102FA0003F932F930E94B1068EE192E00E94180693
:102FB000D4018D914D010E94D60C1F928F93E9E1AF
:102FC000F2E0FF93EF930E94B10687E192E00E9446
:102FD00018063FEF431A530A0FB6F894DEBF0FBE30
:102FE000CDBF76E047165104B9F6C8CF8394990C4B
:102FF00087E0881609F4A8CF8C2D8921B9F30E94A7
:103000004510882399F08F823886792081E009F471
:1030100080E089870E94851E8160782F9B878A8740
:103020004F81588569858B850E94BA06F801E8555D
:10303000FD4F8081982690828091AF02882309F409
:1030400035C18091A5029091A6020E946A1EC29786
:1030500028F48091AF0281111AC00DC10E94851E13
:103060009093A6028093A5028EED92E09093E504E2
:103070008093E404E5E3F2E084918F01882349F32F
:103080000E94DD1F0F5F1F4FF8018491F7CF209141
:10309000DC023091DD022115310509F4ECC080918C
:1030A000A4028111E8C061E070E0482E512C7B0140
:1030B000082E02C0EE0CFF1C0A94E2F7A9014E2173
:1030C0005F21452B11F48F5FF0CF9091A302920105
:1030D00065E0220F331F6A95E1F790FD12C08295DB
:1030E000880F807680932E01220F232F221F330B0F
:1030F000319520933101815E80932F01109232012E
:1031000012C045E0369527954A95E1F7220F220F28
:10311000220F20932E0110923101295F20932F015D
:1031200083E08093320124E630E047E050E06CE237
:1031300071E088E70E94F128892B19F089EA92E072
:1031400089C08091A30280FD17C0C20125E0880FCD
:10315000991F2A95E1F7AC0142525D4F04E610E059
:1031600020E230E060E488E70E941829892B09F406
:1031700074C080E992E06EC080E2E3E8F2E0DF0133
:103180001D928A95E9F785E0440C551C8A95E1F774
:10319000E4E9F1E0FA8BE98B00E911E098E9292EE6
:1031A00091E0392E88248394A989BA892D91BA8B0C
:1031B000A98BF80181918F01B201680F711D6252D4
:1031C0007D4F30E02D573D4FF90197E0AF01421B95
:1031D000530B982C01C0990C4A95EAF75B01C12C5E
:1031E000D5018D915D018921492F4C194770742EAD
:1031F000042E000C550BB82F01C0BB0F7A94EAF7D0
:103200007B2E5195419551094770552701C08695F0
:103210004A95EAF7782A8081782A7082C39448E038
:10322000C412DECF915031969F3F81F669897A8929
:103230002616370609F0B8CF04E610E020E230E0A9
:1032400043E852E060E488E70E941829892B29F0BE
:1032500085E792E00E9418060EC00E944F26E09477
:10326000F0948091DC029091DD02E822F922F09244
:10327000DD02E092DC028091AE028823B9F00E9468
:10328000791E0091120510911305209114053091BB
:103290001505DC01CB01801B910BA20BB30B8F3FFB
:1032A0009F4FAF4FBF4710F40E94A81FD1100E943C
:1032B0004F2686E0ECE0F5E0DE01119601900D92DC
:1032C0008A95E1F7E0900E05F0900F05009110054A
:1032D0001091110510920E0510920F051092100515
:1032E00010921105E11003C0FF2009F451C0809134
:1032F0000A0590910B050E946A1E9C01909106059B
:10330000992309F4FEC02333310508F441C09F3FDF
:1033100019F09F5F90930605EE2061F00E9413273D
:103320001E1414F09FEF01C091E0899F802D11249D
:1033300080930E05FF2061F00E9413271F1414F0E4
:103340009FEF01C091E0899F802D112480930F058C
:1033500030910E053323E1F020910F052223C1F0B7
:1033600045EB3403C0011124992319F090930E0505
:1033700003C081E080930E0565EB2603C001112494
:10338000992319F090930F0503C081E080930F05F6
:10339000011103C0112309F451C0809108059091D7
:1033A00009050E946A1E9C0190910405992309F465
:1033B000ADC02536310508F441C09F3F19F09F5F2D
:1033C00090930405002361F00E94F126101614F07A
:1033D0009FEF01C091E0899F802D112480931005FB
:1033E000112361F00E94F126111614F09FEF01C025
:1033F00091E0899F802D1124809311053091100553
:103400003323E1F0209111052223C1F075EB37033E
:10341000C0011124992319F09093100503C081E095
:103420008093100535EB2303C0011124992319F073
:103430009093110503C081E08093110580910E05E2
:1034400081110BC080910F05811107C0809110057B
:10345000811103C08091110581110E948E27EB829A
:10346000FC820D831E8386E0FE013196ACE0B5E060
:1034700001900D928A95E1F70E940D1F9091A7028D
:10348000891709F4F7CC0E940D1F182F8093A7020B
:103490008091070582FFEECC80FF04C083ED92E0AF
:1034A0000E9418068091070580FF0CC01F921F9391
:1034B0008EEC92E09F938F930E94B1060F900F9035
:1034C0000F900F908091070580FFD4CC8CEC92E098
:1034D0000E941806CFCC09BD19BD09B400FEFDCF6E
:1034E0008091D8008F7D8093D8008091E000826029
:1034F0008093E0008091E00081FDFCCF0E942F25A9
:10350000C6CC2D32314008F004CF42CF2D323140AD
:1035100008F055CF93CF08958091C60208959FB7C4
:10352000F8941092C2029FBF9091D102943009F09A
:1035300057C09091E9009F703091EC00232F2170CB
:1035400030FD20E8922B23E02093E9002091EB004E
:1035500020FF43C02091EE0027FF3FC02091C10211
:10356000222321F02091E80025FF37C01092C102EC
:1035700026E03091E80035FD15C03091D10234309D
:1035800061F53091EB0035FD28C0215021F481E038
:103590008093C10222C0EFE9FFE03197F1F700C04C
:1035A0000000E7CF8093F1008091E80085FD0AC01C
:1035B0008091E80080FFFCCF8091E8008E778093B7
:1035C000E80006C08FB7F89421E02093C2028FBFB5
:1035D0009F709093E90080E008959F709093E900B8
:1035E0008FEF08958093BE027093C0026093BF0274
:1035F0008091D102843001F582E08093E9008FEF61
:103600009091E800815095FD06C095ED9A95F1F7EF
:1036100000008111F5CF8091E80085FF0DC040E0EA
:1036200050E063E070E08EEB92E00E94B220809167
:10363000E8008E778093E8000895BC0184E00C9444
:10364000F21ABC0183E00C94F21A22E02093E90004
:103650002FEF3091E800215035FD06C035ED3A9549
:10366000F1F700002111F5CF2091E80025FF0BC0F4
:1036700040E050E066E070E00E94B2208091E800F7
:103680008E778093E8000895CF93DF9321E0209315
:10369000E9002FEF3091E800215035FD06C035EDEF
:1036A0003A95F1F700002111F5CF2091E80025FFB0
:1036B00014C0EC0140E050E068E070E00E94B220ED
:1036C0008091E8008E778093E80088E0FE01A7EC07
:1036D000B2E001900D928A95E1F7DF91CF910895C4
:1036E0001F920F920FB60F9211242F933F934F9377
:1036F0005F936F937F938F939F93AF93BF93CF937A
:10370000DF93EF93FF93C091E900CF708091EC00BD
:10371000D82FD17080FDD0E81092E9008091F000A0
:10372000877F8093F00078940E94DE201092E90059
:103730008091F00088608093F000CD2BCF70C09313
:10374000E900FF91EF91DF91CF91BF91AF919F91F0
:103750008F917F916F915F914F913F912F910F903A
:103760000FBE0F901F901895E8EDF0E080818E7FDE
:1037700080831092E2001092DA001092E100A0EE35
:10378000B0E08C9181608C9380818F77808319BCAD
:10379000A7EDB0E08C918E7F8C9380818F7E8083AB
:1037A0001092C40208952091E4003091E50095E65E
:1037B0004091EC00842F817040FF23C08091E8008D
:1037C00080FD1DC08091D102882399F0853099F049
:1037D0008091EB0085FD11C04091E4005091E5001F
:1037E0002417350729F3915011F09A01E1CF84E0B5
:1037F000089582E0089583E0089581E0089580E0CF
:1038000008954091E80042FFDDCF08958091D302F2
:1038100087FF11C08091E80082FD05C08091D10230
:103820008111F8CF11C08091E8008B770BC0809197
:10383000D102882349F08091E80080FFF8CF809181
:10384000E8008E778093E8000895982F973068F508
:103850009093E900981739F07091EC002091ED00F9
:103860005091F00003C0242F762F50E021FD02C0BC
:103870009F5FECCF3091EB003E7F3093EB003091B7
:10388000ED003D7F3093ED003091EB0031603093DF
:10389000EB007093EC002093ED005093F00020912A
:1038A000EE0027FDE5CF80E008958F708093E9005A
:1038B00081E00895CF92DF92EF92FF920F931F93D2
:1038C000CF93DF93C8EDD0E088818F7E8883E7EDCA
:1038D000F0E080818160808384E082BF81E080931A
:1038E000C40288818E7F888302EE10E0F801108286
:1038F0001092DA0081EEC82ED12CF6011082888158
:103900008F77888388818068888388818F7D88838A
:1039100019BC1092D1021092D2021092D0021092D1
:10392000CF0290EEE92EF12CF70180818B7F80830E
:1039300088818160888342E060E080E00E94251CED
:10394000F60180818E7F8083F80180818160808391
:10395000808188608083F70180818E7F8083888169
:1039600080618883DF91CF911F910F91FF90EF903D
:10397000DF90CF9008951F920F920FB60F921124EF
:103980002F933F934F935F936F937F938F939F9367
:10399000AF93BF93EF93FF938091E10082FF49C003
:1039A0008091E20082FF45C08091E1008B7F80938F
:1039B000E1002091C3022F5F822F62E30E94CA2B95
:1039C000992319F02093C30234C01092C30280914E
:1039D000C202882371F18091D102843041F5809137
:1039E000E9008F702091EC00922F917020FD90E8FB
:1039F000892B93E09093E9009091EB0090FF14C025
:103A00009091EE0097FF10C09091E80095FF03C0E1
:103A10001092F100F9CF9091E80090FF05C09091CD
:103A2000E8009E779093E8008F708093E9001092F1
:103A3000C2028091DA0080FF32C08091D80080FFFE
:103A40002EC08091DA008E7F8093DA008091D900B9
:103A500080FF1CC080E189BD82E189BD09B400FE00
:103A6000FDCF81E08093D1028DEF92E00E94180695
:103A70008091C402811113C00E94B41B0E945A1C81
:103A80008091E20084608093E20009C019BC10922A
:103A9000D10281E093E00E9418061092C402809146
:103AA000E10080FF1BC08091E20080FF17C0809181
:103AB000E2008E7F8093E2008091E200806180933B
:103AC000E2008091D80080628093D80019BC85E024
:103AD0008093D10285E093E00E9418068091E10076
:103AE00084FF34C08091E20084FF30C080E189BD52
:103AF00082E189BD09B400FEFDCF8091D8008F7DA1
:103B00008093D8008091E1008F7E8093E1008091C6
:103B1000E2008F7E8093E2008091E20081608093DA
:103B2000E2008091D202882311F084E007C08091E6
:103B3000E30087FD02C081E001C083E08093D102F1
:103B400089E093E00E9418068091D1028091E10003
:103B500083FF2BC08091E20083FF27C08091E100AA
:103B6000877F8093E10082E08093D1021092D2029D
:103B70008091E1008E7F8093E1008091E2008E7F52
:103B80008093E2008091E20080618093E20042E055
:103B900060E080E00E94251C8091F00088608093A6
:103BA000F0008DE093E00E941806FF91EF91BF9125
:103BB000AF919F918F917F916F915F914F913F91C5
:103BC0002F910F900FBE0F901F9018952091D90242
:103BD0003091DA022617370748F06115710539F47C
:103BE0002091E8002E772093E80001C0B901FC0184
:103BF00020E06115710579F18091D1028823F1F1FE
:103C00008530F1F18091E80083FD3CC08091E800AF
:103C100082FD2EC08091E80080FFEBCF2091F30061
:103C20008091F20090E0922B6115710551F088307F
:103C3000910538F421912093F100615071090196AA
:103C4000F3CF21E0089709F020E08091E8008E771B
:103C50008093E800CECF2111CFCF0AC08091D1024E
:103C6000882361F0853061F08091E80083FD0AC00F
:103C70008091E80082FFF2CF80E0089582E008950D
:103C800083E0089581E0089578941F920F920FB613
:103C90000F9211248F939F93AF93BF938091BA0299
:103CA0009091BB02A091BC02B091BD020196A11DF2
:103CB000B11D8093BA029093BB02A093BC02B09353
:103CC000BD02BF91AF919F918F910F900FBE0F904A
:103CD0001F9018959C014FB7F8948091BA0290916B
:103CE000BB02A091BC02B091BD024FBF821B930BDF
:103CF00008952FB7F8946091BA027091BB02809139
:103D0000BC029091BD022FBF08952FB7F894809107
:103D1000BA029091BB02A091BC02B091BD022FBF2C
:103D200008951F920F920FB60F9211248F939F93B5
:103D3000AF93BF938091B902811113C08091BA02F1
:103D40009091BB02A091BC02B091BD024196A11D11
:103D5000B11D8093BA029093BB02A093BC02B093B2
:103D6000BD02BF91AF919F918F910F900FBE0F90A9
:103D70001F9018959C012A5F3F4FFC01428146131A
:103D800001C01282019682179307B9F708959C012A
:103D9000FC0132969FEF80E04191461789F09F3FEA
:103DA00019F4411101C0982F8F5F8630A9F79F3F0A
:103DB00039F0F901E90FF11D97FDFA956283089535
:103DC00008952091B7023091B8022817390771F091
:103DD0009093B8028093B702E091B502F091B602D9
:103DE000309721F00084F185E02D09940895209109
:103DF000B3023091B4022817390771F09093B402DE
:103E00008093B302E091B502F091B602309721F0B1
:103E10000680F781E02D099408950E9445108823BB
:103E200051F0E091B502F091B602309721F0019087
:103E3000F081E02D099480E00895EF92FF920F93B6
:103E4000CF93DF93C42FD22FFC0182818823D1F03E
:103E50004093B2020E94851E9093B1028093B002FB
:103E600080E28C0F883008F06DC0C77081E001C01F
:103E7000880FCA95EAF7DF91CF910F91FF90EF90ED
:103E80000C9441258091B20248134BC08091B0023E
:103E90009091B1020E946A1E883C910508F041C0D1
:103EA000CD17C9F080E28C0F883040F4C77081E0F4
:103EB00001C0880FCA95EAF70E943A2580E28D0F6B
:103EC000883048F481E09D2F977001C0880F9A9543
:103ED000EAF70E944125093319F0E12CF12C03C0C7
:103EE00080E5E82EF12C802F0E94AB25E114F1042F
:103EF00051F08FE99FE00197F1F700C0000091E0D9
:103F0000E91AF108F3CF802F0E944B2580E28D0F34
:103F10008830C0F4D77081E001C0880FDA95EAF7E5
:103F20000AC080E28C0F883068F4C77081E001C05D
:103F3000880FCA95EAF7DF91CF910F91FF90EF902C
:103F40000C943A25DF91CF910F91FF90EF90089557
:103F50008091AF029091AE028823A9F0992389F055
:103F600062E070E08BEF92E00E948920892B39F0AB
:103F700086EE92E00E9418068091AE02089510929B
:103F8000AE029091AE0281E089270895FC01AC0158
:103F90004D5F5F4F8FEF91E32191822728E030E062
:103FA00087FF03C0880F892701C0880F215031097E
:103FB000B9F7E417F50781F70895CF93DF93C09120
:103FC000E404D091E5048A30B1F42091DB02CE0103
:103FD0008E5D9240622F70E00E946B2B281B822F17
:103FE00066E00E94CA2BC82FC15008F48FC080E23F
:103FF0000E94DD1FF9CF8D30E9F4CE5DD2402091D3
:10400000DB02622F70E0CE010E946B2B281B822FF7
:104010009E01280F311D2115324018F080E0C0E0CC
:10402000D0E0C80FD11DC252DD4FD093E504C0933C
:10403000E4046CC096E0FE01AEEDB4E001900D9298
:104040009A95E1F7803E30F086E0FE0111928A9564
:10405000E9F70BC0F6E08F9FB00111246B567B4F40
:1040600046E050E0CE010E947F2BC091E404D09145
:10407000E50446E050E0BE018EED94E00E94F02B96
:10408000892B49F19E012E5D3240A90185E05695AC
:1040900047958A95E1F781E090E0BC0102C0660F88
:1040A000771F4A95E2F74091DC025091DD02462BE2
:1040B000572B2B5F3F4F65E0369527956A95E1F7C3
:1040C00002C0880F991F2A95E2F7842B952B9093B5
:1040D000DD028093DC029E01285D32404091DB02CC
:1040E000642F70E0C9010E946B2B481B463010F40E
:1040F000240F311D211582E0380710F020E030E058
:1041000022523D4F3093E5042093E404DF91CF9198
:104110000895EF92FF920F931F93CF93DF93EC01DB
:104120007B0164E670E088E70E9440288C01EC0E79
:10413000FD1ECE15DF0561F017FD0AC0FE0184915A
:1041400064E670E00E94C1288C012196892B89F3D6
:104150000E944529C801DF91CF911F910F91FF90D7
:10416000EF900895EF92FF920F931F93CF93DF93F9
:104170007C018B010E94D31B811119C0E70101153D
:104180001105A1F08091E80085FD0AC08091E8004A
:104190008E778093E8000E94D31B882381F307C0A9
:1041A00089918093F10001501109E9CF80E0DF91FE
:1041B000CF911F910F91FF90EF9008951F93CF9390
:1041C000DF93CDB7DEB7AA970FB6F894DEBF0FBE68
:1041D000CDBFE3EDF2E08091F100819342E0EB3D51
:1041E000F407C9F78091D402833009F461C030F438
:1041F000813071F0823009F49BC0B2C08A3009F47A
:1042000087C08B3009F46CC0893009F0A9C020C088
:104210008091D302813A09F0A3C08091E800877FA2
:104220008093E8008091D7029091D802892B21F4E5
:1042300068E087EC92E003C060E080E090E070E02E
:104240000E94E61D8091E8008B778093E80088C08B
:104250008091D302813209F083C08091D70290917E
:10426000D802029708F07CC08091E800877F809395
:10427000E8008091E80082FD05C08091D1028111A3
:10428000F8CF6EC02091F3008091F20090E0922B65
:10429000029731F48091F100813011F0863021F4E1
:1042A0008091F1008093C6028091E8008B7754C022
:1042B0008091D302813A09F053C08091D702909146
:1042C000D802892B09F04CC08091E800877F809349
:1042D000E8008091E80080FFFCCF8091330137C077
:1042E0008091D3028132E1F58091D7029091D8027A
:1042F000892BB1F58091E800877F8093E8000E94C8
:10430000061C8091D502809333010E942F2528C07E
:104310008091D302813221F58091E800877F8093DC
:10432000E8000E94061C8091D6028093C50218C046
:104330008091D302813AA1F48091E800877F809335
:10434000E8008091E80080FFFCCF8091C502809357
:10435000F1008091E8008E778093E8000E94061CAF
:104360008091E80083FFDAC18091D3029091D4025A
:10437000492F50E04A30510508F0D0C1FA01EE59FA
:10438000FF4F0C94EA2B803821F0823809F0C6C127
:1043900008C08091CF029091D002992389F0826069
:1043A0000FC08091D7028F70873008F0B7C180931B
:1043B000E9008091EB0085FB882780F91092E900E5
:1043C0009091E800977F9093E8008093F10010921D
:1043D000F10070C1282F2D7F09F0A0C1882319F0AA
:1043E000823061F09BC18091D502813009F096C185
:1043F000933009F080E08093D0022EC08091D502E6
:1044000081112AC08091D7028F702FEF280F26309C
:1044100008F084C18093E9002091EB0020FF1CC0CC
:10442000933021F48091EB00806214C09091EB00F6
:1044300090619093EB0021E030E0A90102C0440FAD
:10444000551F8A95E2F74093EA001092EA008091A6
:10445000EB0088608093EB001092E9008091E80007
:10446000877F8093E8000E94061C58C1811156C1C5
:104470001091D5021F778091E3008078812B809383
:10448000E3008091E800877F8093E8000E94061C8B
:104490008091E80080FFFCCF8091E30080688093EA
:1044A000E300111102C082E001C083E08093D102D9
:1044B00035C18058823008F031C12091D502309149
:1044C000D6022C3D53E0350779F583E08A838AE2F2
:1044D00089834FB7F894DE01139620E03EE051E265
:1044E000E32FF0E050935700E49120FF03C0E295E2
:1044F000EF703F5FEF708E2F90E0EA3010F0C796BC
:1045000001C0C0968D939D932F5F243149F74FBF13
:104510008091E800877F8093E8006AE270E0CE0136
:1045200001960E94E61DB5C08091D7029091D802F5
:10453000432F552743305105A9F068F44130510508
:1045400009F4FBC04230510509F0E8C08BE590E06A
:10455000EEEEF3E04BC04132510529F142325105F4
:1045600089F1DCC0C901992781309105A1F058F08B
:10457000029709F0D3C0EBE5F4E0E4918E2F90E0D0
:10458000EBE5F4E030C0E1E9F4E0E4918E2F90E057
:10459000E1E9F4E028C0EFE7F4E0E4918E2F90E049
:1045A000EFE7F4E020C08330910508F0B7C0880F32
:1045B000991FFC01EF55FE4F0190F081E02D89E03D
:1045C00090E014C08330910508F0A8C0FC01EE0F04
:1045D000FF1FE556FE4F0190F081E02DDC01A8564B
:1045E000BE4F8C9190E0009709F498C02091E800AC
:1045F000277F2093E8002091D9023091DA028217B8
:10460000930708F49C0140E02115310589F1809160
:10461000D102882309F43DC08530D9F18091E800AA
:1046200083FD37C08091E80082FD2FC08091E800B3
:1046300080FFEACF4091F3008091F20090E0942B4C
:104640002115310559F08830910540F4449140938B
:10465000F1003196215031090196F2CF41E00897DF
:1046600009F040E08091E8008E778093E800CCCF9D
:104670004111CDCF0AC08091D102882351F08530FD
:1046800041F08091E80083FD04C08091E80082FF42
:10469000F2CF8091E8008B778093E8003FC08038AC
:1046A000E9F58091E800877F8093E8008091D2024D
:1046B0008093F1008091E8008E77D3CE81112EC0D7
:1046C0008091D5029091D602992702973CF580916E
:1046D000E800877F8093E8001091D5021093D20202
:1046E0000E94061C111106C08091E30087FD02C0E4
:1046F00081E001C084E08093D10242E061EC81E07E
:104700000E94251C42E261EC82E00E94251C42E2EC
:1047100061EC83E00E94251C8091D1028091E80029
:1047200083FF10C08091E800877F8093E80080912C
:10473000EB0080628093EB0005C082E190E0E9E449
:10474000F4E054CFAA960FB6F894DEBF0FBECDBFEB
:10475000DF91CF911F91089580E090E00E94F71EB5
:1047600080E090E00E94E11E10924B0210924A02FB
:104770000E949512ECE0F5E086E0DF011D928A953B
:10478000E9F71092060510920405109205050C94A5
:104790008E278F929F92AF92BF92DF92EF92FF92FD
:1047A0000F931F93CF93DF938090710290907202CA
:1047B000A0907302B090740240914E0250914F024B
:1047C0006091500270915102842A952AA62AB72A34
:1047D000CFE1D0E027E0929F700111249AE2D92E18
:1047E000082F10E0D501C4010C2E04C0B695A79582
:1047F000979587950A94D2F780FD04C0219790F78A
:1048000080E014C0DC9EF001DD9EF00D1124EE0D61
:10481000FF1DE00FF11FEE0FFF1FEB52F64F8591CA
:1048200094910E947210019749F38C2FDF91CF91E0
:104830001F910F91FF90EF90DF90BF90AF909F90EE
:104840008F900895CF93DF93EC010E94C9232AE251
:10485000829FC0011124FC0127E0D29FE00DF11DD1
:104860001124EC0FF11DEE0FFF1FEB52F64F859157
:1048700094910E947210DF91CF91089527E0929F4A
:10488000800D1124682F669566956695982F977010
:1048900085E0689FB001112440E050E080E0FB011A
:1048A000E40FF51FEA51FB4F208130E0092E02C0D2
:1048B000369527950A94E2F721703327042E01C01C
:1048C000220F0A94EAF7822B4F5F5F4F4530510564
:1048D00031F7089527E0929F800D1124E82FE69587
:1048E000E695E695877051E001C0550F8A95EAF785
:1048F00085E0E89FF0011124EA51FB4F20E030E011
:1049000070E04081CB01022E02C0969587950A94F3
:10491000E2F78170819584278523842781932F5F17
:104920003F4F2530310569F708950F931F938B0191
:104930009C010670112722273327DC01CB010630AA
:1049400011052105310511F4886001C0877F80932E
:10495000710290937202A0937302B09374021F913C
:104960000F910C94AC230F931F9341E050E060E053
:1049700070E004C0440F551F661F771F8A95D2F759
:10498000409550956095709580917102909172025A
:10499000A0917302B09174028A019B01082319232C
:1049A0002A233B23C901B8011F910F910C94952430
:1049B0000F931F9341E050E060E070E004C0440FAB
:1049C000551F661F771F8A95D2F7809171029091CB
:1049D0007202A0917302B09174028A019B01082BAC
:1049E000192B2A2B3B2BC901B8011F910F910C9455
:1049F000952460934E0270934F02809350029093DF
:104A000051020C94AC23FC01808191810E942224EC
:104A1000292F2F70E92FE295EF704E2F50E0FA0109
:104A20003297EE30F105B8F4E459FF4F0C94EA2BBD
:104A3000803F99F018F4883E70F40FC0843F59F419
:104A40000CC0883E50F0813F31F407C0822F86951C
:104A500086958695089580E0089581E008951092E6
:104A60004C0286E0EBE0F2E0DF011D928A95E9F767
:104A70000C94AC23882321F00E948E120C94951282
:104A80000895882339F090914C02892B80934C0231
:104A90000C9495120895882309F45CC0823869F457
:104AA0000E940D1F81FF56C069E389E092E00E94D9
:104AB000C71E0E94951269E30EC0833891F40E94CC
:104AC0000D1F80FF47C063E589E092E00E94C71E8A
:104AD0000E94951263E589E092E00E94BA1E0C9450
:104AE0009512843869F40E940D1F82FF33C067E479
:104AF00089E092E00E94C71E0E94951267E4EBCF06
:104B00009CEF980F913A10F4682FE5CF90E2980F40
:104B1000983050F4877091E001C0990F8A95EAF7B8
:104B2000892F0E948E12DBCF9BE5980F933020F4E3
:104B300080E090E00C94F71E98E5980F973120F4F0
:104B400080E090E00C94E11E8D3E20F00E947A26D9
:104B50000C948E270895CF93882309F49EC0C82F04
:104B60008238B1F40E940D1F81FD97C069E389E08E
:104B700092E00E94C71E0E9495122FEF81EE94E0F2
:104B8000215080409040E1F700C0000069E317C069
:104B90008338E1F40E940D1F80FD7FC063E589E04A
:104BA00092E00E94C71E0E9495122FEF81EE94E0C2
:104BB000215080409040E1F700C0000063E589E0AB
:104BC00092E00E94BA1ECF910C9495128438B1F4F1
:104BD0000E940D1F82FD61C067E489E092E00E949F
:104BE000C71E0E9495122FEF81EE94E02150804065
:104BF0009040E1F700C0000067E4E1CF8CEF8C0F3C
:104C0000813A80F4EBE0F2E081E192E02191C21779
:104C1000E1F18E179F07D1F76C2F89E092E00E9497
:104C2000C71ED1CF80E28C0F883068F4C77081E056
:104C300090E001C0880FCA95EAF790914C02892B49
:104C400080934C02C0CFEBE5EC0FE33040F4F0E092
:104C5000E95AFE4F808190E0CF910C94F71EE8E571
:104C6000EC0FE73150F4F0E0EE0FFF1FE65AFE4F75
:104C700080819181CF910C94E11ECD3E70F08C2FFC
:104C80000E943327CF910C948E276C2F89E092E0FD
:104C90000E94BA1E0E949512BFCFCF9108958091B5
:104CA000AF02882321F10E94791EDC01CB01805ADA
:104CB0009541AF4FBF4F8093120590931305A0937A
:104CC0001405B09315058091AE02811110C062E009
:104CD00070E083E89BE00E948920892B29F08FE611
:104CE0009BE00E94180603C081E08093AE02809191
:104CF000AE0208958D3E39F490910F0597FF35C0AF
:104D000010920F0559C08E3E29F490910F05191687
:104D1000BCF32BC090910E058F3E29F497FF25C060
:104D200010920E0549C0803F19F41916CCF31DC02E
:104D300090911005893F29F41916BCF410921005C2
:104D40003BC08A3F19F497FF10C0F8CF8B3F39F46E
:104D50009091110597FF09C0109211052DC08C3F4D
:104D600021F4909111051916BCF39FE0980F98302B
:104D700080F421E030E0A90102C0440F551F9A954C
:104D8000E2F7CA01809590910D05892380930D0566
:104D900013C08D3F21F4809105058E7F0BC08E3F9F
:104DA00021F4809105058D7F05C08F3F29F4809106
:104DB00005058B7F8093050580910E05811106C046
:104DC00080910F05811102C0109206058091100597
:104DD000811106C080911105811102C01092040555
:104DE00008958091050580FD16C081FD16C082FDE5
:104DF00018C080910405882391F0883290F428E04F
:104E0000829FC001112468E270E00E94D62B862F99
:104E1000672B29F007C082E0089584E0089581E0BF
:104E2000089588E008958091050580FD14C081FDF6
:104E300014C082FD16C080910605882381F084315C
:104E400080F422E3829FC001112464E170E00E949B
:104E5000D62B862F08958CE0089589E1089585E08A
:104E6000089582E308958D3E21F40E9413278195D1
:104E700004C08E3E29F40E94132780930F050895E5
:104E80008F3E21F40E941327819504C0803F29F4AE
:104E90000E94132780930E050895893F19F40E94FC
:104EA000F12605C08A3F31F40E94F1268195809356
:104EB000100508958B3F21F40E94F126819504C0CE
:104EC0008C3F29F40E94F1268093110508959FE0FC
:104ED000980F983078F421E030E0A90102C0440F27
:104EE000551F9A95E2F7CA0190910D05892B809381
:104EF0000D0508958D3F21F48091050581600BC05B
:104F00008E3F21F480910505826005C08F3F29F412
:104F100080910505846080930505089580910705BB
:104F200083FF7EC08CE49BE00E94180680910D05F3
:104F30001F928F9387E49BE09F938F930E94B1060B
:104F400085E49BE00E94180680910E05282F082E0C
:104F5000000C330B3F938F9382E49BE09F938F93DE
:104F60000E94B10680E49BE00E94180680910F0524
:104F7000282F082E000C330B3F938F938DE39BE07B
:104F80009F938F930E94B1068BE39BE00E941806CB
:104F900080911005282F082E000C330B3F938F9320
:104FA00088E39BE09F938F930E94B10686E39BE08A
:104FB0000E94180680911105282F082E000C330B33
:104FC0003F938F9383E39BE09F938F930E94B1065F
:104FD00080E39BE00E941806809106051F928F9344
:104FE0008DE29BE09F938F930E94B1068BE29BE042
:104FF0000E941806809105051F928F9388E29BE01E
:105000009F938F930E94B10685E29BE00E94180651
:105010008DB79EB74C960FB6F8949EBF0FBE8DBF4E
:105020000E94851E20910E05211104C020910F05BC
:10503000222321F090930B0580930A0520911005FF
:10504000211104C020911105222321F0909309051C
:1050500080930805E091B502F091B602309749F0CF
:1050600082E080930C050480F581E02D8CE095E0D2
:10507000099408951092B9008CE08093B8000895C7
:105080009F92AF92BF92CF92DF92EF92FF920F93D7
:105090001F93CF93DF93B82EEB010E94851E6C0106
:1050A000C431D10558F0CF3F8FEFD80759F0CE016A
:1050B00064E170E00E946B2B7B0107C0EE24E39457
:1050C000F12C03C025E0E22EF12C84E8A82E94EA0E
:1050D000992E1092BC009092BC000E94851E8C01FB
:1050E0008091BC0087FD08C00E94851E801B910B2B
:1050F0008E159F05A8F32AC08091B900887F88305B
:1051000041F08091B900887F803119F00FEF1FEFD7
:105110001FC0B092BB00A092BC000E94851E8C01F3
:105120008091BC0087FD08C00E94851E801B910BEA
:105130008E159F05A8F30AC08091B900887F883139
:1051400011F0803419F700E010E00EC00EEF1FEFF1
:10515000CF3F8FEFD80709F4BCCFC6010E946A1E6B
:105160008C179D0708F4B5CFC801DF91CF911F912F
:105170000F91FF90EF90DF90CF90BF90AF909F90F6
:1051800008950F931F93CF93DF93EB018093BB00A0
:1051900084E88093BC000E94851E8C018091BC0035
:1051A00087FD0EC0CF3F8FEFD807C1F30E94851E49
:1051B000801B910B8C179D0788F38EEF9FEF0CC01F
:1051C0002091B900287F81E090E0283211F480E03E
:1051D00090E0919581959109DF91CF911F910F9169
:1051E0000895CF92DF92EF92FF920F931F93CF9388
:1051F000DF936B018A017901B9010E944028E60121
:105200000C0D1D1DC017D10761F424E92093BC00CB
:10521000DF91CF911F910F91FF90EF90DF90CF9092
:10522000089597FDF2CFB70189910E94C128EACF76
:10523000CF92DF92EF92FF920F931F93CF93DF9362
:10524000C62F6A017901B8010E94402897FD11C05C
:10525000B8018C2F0E94C128E601EC0CFD1CCE1574
:10526000DF0539F097FD05C0B80189910E94C1287A
:10527000F6CF24E92093BC00DF91CF911F910F91CD
:10528000FF90EF90DF90CF90089584E98093BC0069
:1052900008958EE14A9B02C08150E1F74A9BFECF00
:1052A00008955A9880E28A95F1F75A9A0895FC0178
:1052B0002AE02A95F1F728E090E080E031E040E133
:1052C0004A95F1F7880F4A9B02C08160932700C07E
:1052D000000040E14A95F1F7215089F720E12A9535
:1052E000F1F729B100C0000030E13A95F1F722FB57
:1052F000222720F992272081920F90830895EF9220
:10530000FF920F931F93CF93DF931F92CDB7DEB71A
:1053100019828C017C01E60EF11C0E151F0551F05F
:105320000E944929CE0101960E945729F8018193D4
:105330008F01F3CF81E09981911180E00F90DF918F
:10534000CF911F910F91FF90EF900895529A5A9A22
:10535000089552985A9AEA9AE9E6F0E080818F7CA3
:1053600080830895615091E001C0990F6A95EAF732
:1053700020E031E0992361F0492F482319F05A9A2F
:10538000232701C05A9840E24A95F1F79695F2CF4B
:10539000222311F05A9A01C05A9880E28A95F1F7B7
:1053A0005A980895FF920F931F93CF93DF93EC01C8
:1053B0008C01060F111DC017D10741F0F9900E9412
:1053C000512968E08F2D0E94B229F5CFDF91CF914E
:1053D0001F910F91FF9008951F920F920FB60F9299
:1053E0001124EF92FF920F931F932F933F934F93AC
:1053F0005F936F937F938F939F93AF93BF93EF933D
:10540000FF93CF93DF931F92CDB7DEB719820E942F
:105410004929CE0101960E945729A82FA695A69545
:10542000A6959A2F969595702A2F2570920F292F61
:10543000237096959695920F877089137CC0898109
:10544000811179C0A43008F076C080E18A95F1F727
:105450005A9A529AB2E0BA95F1F700C05A98EA2ED9
:10546000F12CEAE0AE9FD0011124A050BF4F189656
:10547000ED91FC9119973097B1F06091880170918E
:10548000890116962D913C911797260F371F139679
:105490008D919C911497680F791F15964C911597D3
:1054A00012968C9109958AE08E9DF0018F9DF00DEA
:1054B0001124E050FF4F6581662351F080918801EF
:1054C0009091890126813781820F931F0E94D229F2
:1054D0000E945129F0E1FA95F1F75A9852985A9A98
:1054E00080E18A95F1F78AE08E9D80018F9D100DF5
:1054F000112400501F4FD80112966C911297662309
:1055000099F0809188019091890113962D913C9199
:105510001497820F931F0E947F29D801ED91FC916F
:10552000811105C082E004C0D801ED91FC9188E0B2
:1055300080830E9449290F90DF91CF91FF91EF91D5
:10554000BF91AF919F918F917F916F915F914F919B
:105550003F912F911F910F91FF90EF900F900FBEF1
:105560000F901F9018950F931F93CF93DF93843064
:1055700091050CF0A9C02AE0289FF001299FF00DA9
:105580001124E050FF4F20813181232B09F49CC06E
:10559000EC01F894529A5A9885E08A95F1F7000048
:1055A0008C2F869585709C2F9570890F982F9370FE
:1055B000869586958E0123E0000F111F2A95E1F74D
:1055C000890F082B0E945129A4E0AA95F1F700C089
:1055D00068E0802F0E94B229B0E1BA95F1F75298A5
:1055E0005A9A4A9902C000C0FCCF87E090E04A9BDB
:1055F00017C0019799F4529A5A9A8AE08C9FF00149
:105600008D9FF00D1124E050FF4F0190F081E02DAF
:1056100081E08083789481E090E058C000C0E7CFBB
:105620008AE08C9F80018D9F100D112400501F4F28
:10563000F80165816623B9F0809188019091890114
:1056400026813781820F931F0E947F2981110BC011
:10565000529A5A9AD801ED91FC9182E08083789415
:1056600082E090E033C00E944929B0E2BA95F1F798
:105670005A98529AE0E1EA95F1F78AE08C9FF0019E
:105680008D9FF00D1124E050FF4F6281662351F091
:10569000809188019091890123813481820F931F29
:1056A0000E94D2290E9451298AE08C9FF0018D9F8F
:1056B000F00D1124E050FF4F0190F081E02D108299
:1056C000789480E090E002C084E090E0DF91CF9198
:1056D0001F910F910895AA1BBB1B51E107C0AA1F80
:1056E000BB1FA617B70710F0A61BB70B881F991F83
:1056F0005A95A9F780959095BC01CD010895FB01BD
:10570000DC0102C005900D9241505040D8F7089539
:10571000F999FECF92BD81BDF89A992780B5089579
:10572000A8E1B0E042E050E00C94BC2B262FF999A0
:10573000FECF92BD81BDF89A019700B4021639F0F0
:105740001FBA20BD0FB6F894FA9AF99A0FBE0895C1
:105750000396272F0E94972B0E94962B252F0E949D
:10576000972B242F0C94972B0196272F0E94972B71
:105770000C94962BDC01CB01FC01F999FECF06C0FD
:10578000F2BDE1BDF89A319600B40D9241505040FF
:10579000B8F70895991B79E004C0991F961708F08F
:1057A000961B881F7A95C9F78095089597FB072E59
:1057B00016F4009407D077FD09D00E946B2B07FCEC
:1057C00005D03EF4909581959F4F08957095619511
:1057D0007F4F0895EE0FFF1F0590F491E02D09947F
:1057E000FB01DC0104C08D910190801921F441502E
:1057F0005040C8F7881B990B0895FB01DC0102C0DB
:1058000001900D9241505040D8F70895F894FFCF81
:105810005A0200000001000000005A0200000003CC
:10582000010000005A0204040000000000004001D2
:105830008C1A441B251B211B1D1B8B1A0021007F6A
:105840002200030122014A01736C6176655F6D617C
:10585000747269780073796E635F74696D65720044
:1058600006040300010205818283E200E900EA00E8
:10587000B500B600B700CD008301CC008A019201CB
:1058800094012102230224022502260227022A0271
:10589000B300B4006F0070005B0294669733323639
:1058A0000008101818100800407B22AE03330311C3
:0858B000030004190432040096
:00000001FF
